{
  "contractName": "HjaelpCoin",
  "abi": [
    {
      "inputs": [],
      "stateMutability": "nonpayable",
      "type": "constructor"
    },
    {
      "anonymous": false,
      "inputs": [
        {
          "indexed": true,
          "internalType": "address",
          "name": "owner",
          "type": "address"
        },
        {
          "indexed": true,
          "internalType": "address",
          "name": "spender",
          "type": "address"
        },
        {
          "indexed": false,
          "internalType": "uint256",
          "name": "value",
          "type": "uint256"
        }
      ],
      "name": "Approval",
      "type": "event"
    },
    {
      "anonymous": false,
      "inputs": [
        {
          "indexed": true,
          "internalType": "address",
          "name": "previousOwner",
          "type": "address"
        },
        {
          "indexed": true,
          "internalType": "address",
          "name": "newOwner",
          "type": "address"
        }
      ],
      "name": "OwnershipTransferred",
      "type": "event"
    },
    {
      "anonymous": false,
      "inputs": [
        {
          "indexed": false,
          "internalType": "uint256",
          "name": "tokensSwapped",
          "type": "uint256"
        },
        {
          "indexed": false,
          "internalType": "uint256",
          "name": "ethReceived",
          "type": "uint256"
        },
        {
          "indexed": false,
          "internalType": "uint256",
          "name": "tokensIntoLiqudity",
          "type": "uint256"
        }
      ],
      "name": "SwapAndLiquify",
      "type": "event"
    },
    {
      "anonymous": false,
      "inputs": [
        {
          "indexed": false,
          "internalType": "bool",
          "name": "enabled",
          "type": "bool"
        }
      ],
      "name": "SwapAndLiquifyEnabledUpdated",
      "type": "event"
    },
    {
      "anonymous": false,
      "inputs": [
        {
          "indexed": true,
          "internalType": "address",
          "name": "from",
          "type": "address"
        },
        {
          "indexed": true,
          "internalType": "address",
          "name": "to",
          "type": "address"
        },
        {
          "indexed": false,
          "internalType": "uint256",
          "name": "value",
          "type": "uint256"
        }
      ],
      "name": "Transfer",
      "type": "event"
    },
    {
      "inputs": [],
      "name": "_liquidityFee",
      "outputs": [
        {
          "internalType": "uint256",
          "name": "",
          "type": "uint256"
        }
      ],
      "stateMutability": "view",
      "type": "function"
    },
    {
      "inputs": [],
      "name": "_maxHoldAmount",
      "outputs": [
        {
          "internalType": "uint256",
          "name": "",
          "type": "uint256"
        }
      ],
      "stateMutability": "view",
      "type": "function"
    },
    {
      "inputs": [],
      "name": "_maxTxAmount",
      "outputs": [
        {
          "internalType": "uint256",
          "name": "",
          "type": "uint256"
        }
      ],
      "stateMutability": "view",
      "type": "function"
    },
    {
      "inputs": [],
      "name": "_taxFee",
      "outputs": [
        {
          "internalType": "uint256",
          "name": "",
          "type": "uint256"
        }
      ],
      "stateMutability": "view",
      "type": "function"
    },
    {
      "inputs": [],
      "name": "owner",
      "outputs": [
        {
          "internalType": "address",
          "name": "",
          "type": "address"
        }
      ],
      "stateMutability": "view",
      "type": "function"
    },
    {
      "inputs": [],
      "name": "renounceOwnership",
      "outputs": [],
      "stateMutability": "nonpayable",
      "type": "function"
    },
    {
      "inputs": [],
      "name": "swapAndLiquifyEnabled",
      "outputs": [
        {
          "internalType": "bool",
          "name": "",
          "type": "bool"
        }
      ],
      "stateMutability": "view",
      "type": "function"
    },
    {
      "inputs": [
        {
          "internalType": "address",
          "name": "newOwner",
          "type": "address"
        }
      ],
      "name": "transferOwnership",
      "outputs": [],
      "stateMutability": "nonpayable",
      "type": "function"
    },
    {
      "inputs": [],
      "name": "uniswapV2Pair",
      "outputs": [
        {
          "internalType": "address",
          "name": "",
          "type": "address"
        }
      ],
      "stateMutability": "view",
      "type": "function"
    },
    {
      "inputs": [],
      "name": "uniswapV2Router",
      "outputs": [
        {
          "internalType": "contract IUniswapV2Router02",
          "name": "",
          "type": "address"
        }
      ],
      "stateMutability": "view",
      "type": "function"
    },
    {
      "inputs": [],
      "name": "getOwner",
      "outputs": [
        {
          "internalType": "address",
          "name": "",
          "type": "address"
        }
      ],
      "stateMutability": "view",
      "type": "function"
    },
    {
      "inputs": [],
      "name": "decimals",
      "outputs": [
        {
          "internalType": "uint8",
          "name": "",
          "type": "uint8"
        }
      ],
      "stateMutability": "view",
      "type": "function"
    },
    {
      "inputs": [],
      "name": "symbol",
      "outputs": [
        {
          "internalType": "string",
          "name": "",
          "type": "string"
        }
      ],
      "stateMutability": "view",
      "type": "function"
    },
    {
      "inputs": [],
      "name": "name",
      "outputs": [
        {
          "internalType": "string",
          "name": "",
          "type": "string"
        }
      ],
      "stateMutability": "view",
      "type": "function"
    },
    {
      "inputs": [],
      "name": "totalSupply",
      "outputs": [
        {
          "internalType": "uint256",
          "name": "",
          "type": "uint256"
        }
      ],
      "stateMutability": "view",
      "type": "function"
    },
    {
      "inputs": [],
      "name": "maxSupply",
      "outputs": [
        {
          "internalType": "uint256",
          "name": "",
          "type": "uint256"
        }
      ],
      "stateMutability": "view",
      "type": "function"
    },
    {
      "inputs": [
        {
          "internalType": "address",
          "name": "account",
          "type": "address"
        }
      ],
      "name": "balanceOf",
      "outputs": [
        {
          "internalType": "uint256",
          "name": "",
          "type": "uint256"
        }
      ],
      "stateMutability": "view",
      "type": "function"
    },
    {
      "inputs": [
        {
          "internalType": "address",
          "name": "recipient",
          "type": "address"
        },
        {
          "internalType": "uint256",
          "name": "amount",
          "type": "uint256"
        }
      ],
      "name": "transfer",
      "outputs": [
        {
          "internalType": "bool",
          "name": "",
          "type": "bool"
        }
      ],
      "stateMutability": "nonpayable",
      "type": "function"
    },
    {
      "inputs": [
        {
          "internalType": "address",
          "name": "owner",
          "type": "address"
        },
        {
          "internalType": "address",
          "name": "spender",
          "type": "address"
        }
      ],
      "name": "allowance",
      "outputs": [
        {
          "internalType": "uint256",
          "name": "",
          "type": "uint256"
        }
      ],
      "stateMutability": "view",
      "type": "function"
    },
    {
      "inputs": [
        {
          "internalType": "address",
          "name": "spender",
          "type": "address"
        },
        {
          "internalType": "uint256",
          "name": "amount",
          "type": "uint256"
        }
      ],
      "name": "approve",
      "outputs": [
        {
          "internalType": "bool",
          "name": "",
          "type": "bool"
        }
      ],
      "stateMutability": "nonpayable",
      "type": "function"
    },
    {
      "inputs": [
        {
          "internalType": "address",
          "name": "sender",
          "type": "address"
        },
        {
          "internalType": "address",
          "name": "recipient",
          "type": "address"
        },
        {
          "internalType": "uint256",
          "name": "amount",
          "type": "uint256"
        }
      ],
      "name": "transferFrom",
      "outputs": [
        {
          "internalType": "bool",
          "name": "",
          "type": "bool"
        }
      ],
      "stateMutability": "nonpayable",
      "type": "function"
    },
    {
      "inputs": [
        {
          "internalType": "address",
          "name": "spender",
          "type": "address"
        },
        {
          "internalType": "uint256",
          "name": "addedValue",
          "type": "uint256"
        }
      ],
      "name": "increaseAllowance",
      "outputs": [
        {
          "internalType": "bool",
          "name": "",
          "type": "bool"
        }
      ],
      "stateMutability": "nonpayable",
      "type": "function"
    },
    {
      "inputs": [
        {
          "internalType": "address",
          "name": "spender",
          "type": "address"
        },
        {
          "internalType": "uint256",
          "name": "subtractedValue",
          "type": "uint256"
        }
      ],
      "name": "decreaseAllowance",
      "outputs": [
        {
          "internalType": "bool",
          "name": "",
          "type": "bool"
        }
      ],
      "stateMutability": "nonpayable",
      "type": "function"
    },
    {
      "inputs": [
        {
          "internalType": "address",
          "name": "account",
          "type": "address"
        },
        {
          "internalType": "uint256",
          "name": "amount",
          "type": "uint256"
        }
      ],
      "name": "mint",
      "outputs": [
        {
          "internalType": "bool",
          "name": "",
          "type": "bool"
        }
      ],
      "stateMutability": "nonpayable",
      "type": "function"
    },
    {
      "inputs": [
        {
          "internalType": "address",
          "name": "account",
          "type": "address"
        },
        {
          "internalType": "uint256",
          "name": "amount",
          "type": "uint256"
        }
      ],
      "name": "burn",
      "outputs": [],
      "stateMutability": "nonpayable",
      "type": "function"
    },
    {
      "inputs": [
        {
          "internalType": "address",
          "name": "account",
          "type": "address"
        }
      ],
      "name": "excludeFromFee",
      "outputs": [],
      "stateMutability": "nonpayable",
      "type": "function"
    },
    {
      "inputs": [
        {
          "internalType": "address",
          "name": "account",
          "type": "address"
        }
      ],
      "name": "includeInFee",
      "outputs": [],
      "stateMutability": "nonpayable",
      "type": "function"
    },
    {
      "inputs": [
        {
          "internalType": "uint256",
          "name": "taxFee",
          "type": "uint256"
        }
      ],
      "name": "setTaxFeePercent",
      "outputs": [],
      "stateMutability": "nonpayable",
      "type": "function"
    },
    {
      "inputs": [
        {
          "internalType": "uint256",
          "name": "liquidityFee",
          "type": "uint256"
        }
      ],
      "name": "setLiquidityFeePercent",
      "outputs": [],
      "stateMutability": "nonpayable",
      "type": "function"
    },
    {
      "inputs": [
        {
          "internalType": "uint256",
          "name": "maxHoldingPercent",
          "type": "uint256"
        }
      ],
      "name": "setMaxHoldingPercent",
      "outputs": [],
      "stateMutability": "nonpayable",
      "type": "function"
    },
    {
      "inputs": [
        {
          "internalType": "uint256",
          "name": "maxTxPercent",
          "type": "uint256"
        }
      ],
      "name": "setMaxTxPercent",
      "outputs": [],
      "stateMutability": "nonpayable",
      "type": "function"
    },
    {
      "inputs": [
        {
          "internalType": "uint256",
          "name": "minTokensToAddToLiquidity",
          "type": "uint256"
        }
      ],
      "name": "setMinTokensToAddToLiquidity",
      "outputs": [],
      "stateMutability": "nonpayable",
      "type": "function"
    },
    {
      "inputs": [
        {
          "internalType": "bool",
          "name": "_enabled",
          "type": "bool"
        }
      ],
      "name": "setSwapAndLiquifyEnabled",
      "outputs": [],
      "stateMutability": "nonpayable",
      "type": "function"
    },
    {
      "inputs": [
        {
          "internalType": "address",
          "name": "newProviderAddress",
          "type": "address"
        }
      ],
      "name": "setProviderAddress",
      "outputs": [],
      "stateMutability": "nonpayable",
      "type": "function"
    }
  ],
  "bytecode": "0x60c06040526001600b60016101000a81548160ff0219169083151502179055503480156200002c57600080fd5b5060006200003f6200066260201b60201c565b9050806000806101000a81548173ffffffffffffffffffffffffffffffffffffffff021916908373ffffffffffffffffffffffffffffffffffffffff1602179055508073ffffffffffffffffffffffffffffffffffffffff16600073ffffffffffffffffffffffffffffffffffffffff167f8be0079c531659141344cd1fd0a4f28419497f9722a3daafe3b4186f6b6457e060405160405180910390a3506040518060400160405280600a81526020017f486a61656c70436f696e00000000000000000000000000000000000000000000815250600790805190602001906200012a92919062000693565b506040518060400160405280600681526020017f484a41454c500000000000000000000000000000000000000000000000000000815250600690805190602001906200017892919062000693565b506012600560006101000a81548160ff021916908360ff1602179055506b033b2e3c9fd0803ce80000006004819055506000600381905550610190600981905550610190600a8190555069d3c21bcecceda1000000600c81905550600019600d8190555069021e19e0c9bab2400000600e81905550620001fd6200066a60201b60201c565b600f60006101000a81548173ffffffffffffffffffffffffffffffffffffffff021916908373ffffffffffffffffffffffffffffffffffffffff1602179055506000737a250d5630b4cf539739df2c5dacb4c659f2488d905060008173ffffffffffffffffffffffffffffffffffffffff1663c45a01556040518163ffffffff1660e01b815260040160206040518083038186803b1580156200029f57600080fd5b505afa158015620002b4573d6000803e3d6000fd5b505050506040513d601f19601f82011682018060405250810190620002da91906200075a565b73ffffffffffffffffffffffffffffffffffffffff1663c9c65396308473ffffffffffffffffffffffffffffffffffffffff1663ad5c46486040518163ffffffff1660e01b815260040160206040518083038186803b1580156200033d57600080fd5b505afa15801562000352573d6000803e3d6000fd5b505050506040513d601f19601f820116820180604052508101906200037891906200075a565b6040518363ffffffff1660e01b81526004016200039792919062000797565b602060405180830381600087803b158015620003b257600080fd5b505af1158015620003c7573d6000803e3d6000fd5b505050506040513d601f19601f82011682018060405250810190620003ed91906200075a565b90508173ffffffffffffffffffffffffffffffffffffffff1660808173ffffffffffffffffffffffffffffffffffffffff1660601b815250508073ffffffffffffffffffffffffffffffffffffffff1660a08173ffffffffffffffffffffffffffffffffffffffff1660601b81525050600160086000620004736200066a60201b60201c565b73ffffffffffffffffffffffffffffffffffffffff1673ffffffffffffffffffffffffffffffffffffffff16815260200190815260200160002060006101000a81548160ff0219169083151502179055506001600860003073ffffffffffffffffffffffffffffffffffffffff1673ffffffffffffffffffffffffffffffffffffffff16815260200190815260200160002060006101000a81548160ff021916908315150217905550600160086000600f60009054906101000a900473ffffffffffffffffffffffffffffffffffffffff1673ffffffffffffffffffffffffffffffffffffffff1673ffffffffffffffffffffffffffffffffffffffff16815260200190815260200160002060006101000a81548160ff021916908315150217905550600160086000737a250d5630b4cf539739df2c5dacb4c659f2488d73ffffffffffffffffffffffffffffffffffffffff1673ffffffffffffffffffffffffffffffffffffffff16815260200190815260200160002060006101000a81548160ff0219169083151502179055506001600860008373ffffffffffffffffffffffffffffffffffffffff1673ffffffffffffffffffffffffffffffffffffffff16815260200190815260200160002060006101000a81548160ff021916908315150217905550505062000877565b600033905090565b60008060009054906101000a900473ffffffffffffffffffffffffffffffffffffffff16905090565b828054620006a190620007f8565b90600052602060002090601f016020900481019282620006c5576000855562000711565b82601f10620006e057805160ff191683800117855562000711565b8280016001018555821562000711579182015b8281111562000710578251825591602001919060010190620006f3565b5b50905062000720919062000724565b5090565b5b808211156200073f57600081600090555060010162000725565b5090565b60008151905062000754816200085d565b92915050565b6000602082840312156200076d57600080fd5b60006200077d8482850162000743565b91505092915050565b6200079181620007c4565b82525050565b6000604082019050620007ae600083018562000786565b620007bd602083018462000786565b9392505050565b6000620007d182620007d8565b9050919050565b600073ffffffffffffffffffffffffffffffffffffffff82169050919050565b600060028204905060018216806200081157607f821691505b602082108114156200082857620008276200082e565b5b50919050565b7f4e487b7100000000000000000000000000000000000000000000000000000000600052602260045260246000fd5b6200086881620007c4565b81146200087457600080fd5b50565b60805160601c60a05160601c613724620008cd60003960008181610b980152611b27015260008181610852015281816125d3015281816126e901528181612710015281816127ac01526127d301526137246000f3fe608060405234801561001057600080fd5b50600436106102055760003560e01c8063715018a61161011a578063a457c2d7116100ad578063d5abeb011161007c578063d5abeb01146105ca578063dc5d7fc5146105e8578063dd62ed3e14610604578063ea2f0b3714610634578063f2fde38b1461065057610205565b8063a457c2d714610532578063a9059cbb14610562578063c49b9a8014610592578063d543dbeb146105ae57610205565b80638ee88c53116100e95780638ee88c53146104c057806395d89b41146104dc5780639dc29fac146104fa578063a23628d51461051657610205565b8063715018a61461045c5780637d1db4a514610466578063893d20e8146104845780638da5cb5b146104a257610205565b8063313ce5671161019d578063437823ec1161016c578063437823ec146103b657806349bd5a5e146103d25780634a74bb02146103f05780636bc87c3a1461040e57806370a082311461042c57610205565b8063313ce5671461031a57806339509351146103385780633b124fe71461036857806340c10f191461038657610205565b80631694505e116101d95780631694505e1461029057806318160ddd146102ae5780631fc9efa1146102cc57806323b872dd146102ea57610205565b806216bd6c1461020a578063061c82d01461022657806306fdde0314610242578063095ea7b314610260575b600080fd5b610224600480360381019061021f9190612a41565b61066c565b005b610240600480360381019061023b9190612a41565b61071a565b005b61024a6107a0565b60405161025791906130d9565b60405180910390f35b61027a600480360381019061027591906129dc565b610832565b60405161028791906130a3565b60405180910390f35b610298610850565b6040516102a591906130be565b60405180910390f35b6102b6610874565b6040516102c3919061327b565b60405180910390f35b6102d461087e565b6040516102e1919061327b565b60405180910390f35b61030460048036038101906102ff919061298d565b610884565b60405161031191906130a3565b60405180910390f35b61032261095d565b60405161032f9190613327565b60405180910390f35b610352600480360381019061034d91906129dc565b610974565b60405161035f91906130a3565b60405180910390f35b610370610a27565b60405161037d919061327b565b60405180910390f35b6103a0600480360381019061039b91906129dc565b610a2d565b6040516103ad91906130a3565b60405180910390f35b6103d060048036038101906103cb91906128ff565b610abf565b005b6103da610b96565b6040516103e79190613027565b60405180910390f35b6103f8610bba565b60405161040591906130a3565b60405180910390f35b610416610bcd565b604051610423919061327b565b60405180910390f35b610446600480360381019061044191906128ff565b610bd3565b604051610453919061327b565b60405180910390f35b610464610c1c565b005b61046e610d56565b60405161047b919061327b565b60405180910390f35b61048c610d5c565b6040516104999190613027565b60405180910390f35b6104aa610d6b565b6040516104b79190613027565b60405180910390f35b6104da60048036038101906104d59190612a41565b610d94565b005b6104e4610e1a565b6040516104f191906130d9565b60405180910390f35b610514600480360381019061050f91906129dc565b610eac565b005b610530600480360381019061052b9190612a41565b610f36565b005b61054c600480360381019061054791906129dc565b610fbc565b60405161055991906130a3565b60405180910390f35b61057c600480360381019061057791906129dc565b611089565b60405161058991906130a3565b60405180910390f35b6105ac60048036038101906105a79190612a18565b6110a7565b005b6105c860048036038101906105c39190612a41565b611177565b005b6105d2611225565b6040516105df919061327b565b60405180910390f35b61060260048036038101906105fd91906128ff565b61122f565b005b61061e60048036038101906106199190612951565b611323565b60405161062b919061327b565b60405180910390f35b61064e600480360381019061064991906128ff565b6113aa565b005b61066a600480360381019061066591906128ff565b611481565b005b61067461162a565b73ffffffffffffffffffffffffffffffffffffffff16610692610d6b565b73ffffffffffffffffffffffffffffffffffffffff16146106e8576040517f08c379a00000000000000000000000000000000000000000000000000000000081526004016106df906131bb565b60405180910390fd5b6107116127106107038360035461163290919063ffffffff16565b61164890919063ffffffff16565b600c8190555050565b61072261162a565b73ffffffffffffffffffffffffffffffffffffffff16610740610d6b565b73ffffffffffffffffffffffffffffffffffffffff1614610796576040517f08c379a000000000000000000000000000000000000000000000000000000000815260040161078d906131bb565b60405180910390fd5b8060098190555050565b6060600780546107af9061356a565b80601f01602080910402602001604051908101604052809291908181526020018280546107db9061356a565b80156108285780601f106107fd57610100808354040283529160200191610828565b820191906000526020600020905b81548152906001019060200180831161080b57829003601f168201915b5050505050905090565b600061084661083f61162a565b848461165e565b6001905092915050565b7f000000000000000000000000000000000000000000000000000000000000000081565b6000600354905090565b600c5481565b6000610891848484611829565b6109528461089d61162a565b61094d8560405180606001604052806028815260200161368060289139600260008b73ffffffffffffffffffffffffffffffffffffffff1673ffffffffffffffffffffffffffffffffffffffff168152602001908152602001600020600061090361162a565b73ffffffffffffffffffffffffffffffffffffffff1673ffffffffffffffffffffffffffffffffffffffff16815260200190815260200160002054611d639092919063ffffffff16565b61165e565b600190509392505050565b6000600560009054906101000a900460ff16905090565b6000610a1d61098161162a565b84610a18856002600061099261162a565b73ffffffffffffffffffffffffffffffffffffffff1673ffffffffffffffffffffffffffffffffffffffff16815260200190815260200160002060008973ffffffffffffffffffffffffffffffffffffffff1673ffffffffffffffffffffffffffffffffffffffff16815260200190815260200160002054611db890919063ffffffff16565b61165e565b6001905092915050565b60095481565b6000610a3761162a565b73ffffffffffffffffffffffffffffffffffffffff16610a55610d6b565b73ffffffffffffffffffffffffffffffffffffffff1614610aab576040517f08c379a0000000000000000000000000000000000000000000000000000000008152600401610aa2906131bb565b60405180910390fd5b610ab58383611dce565b6001905092915050565b610ac761162a565b73ffffffffffffffffffffffffffffffffffffffff16610ae5610d6b565b73ffffffffffffffffffffffffffffffffffffffff1614610b3b576040517f08c379a0000000000000000000000000000000000000000000000000000000008152600401610b32906131bb565b60405180910390fd5b6001600860008373ffffffffffffffffffffffffffffffffffffffff1673ffffffffffffffffffffffffffffffffffffffff16815260200190815260200160002060006101000a81548160ff02191690831515021790555050565b7f000000000000000000000000000000000000000000000000000000000000000081565b600b60019054906101000a900460ff1681565b600a5481565b6000600160008373ffffffffffffffffffffffffffffffffffffffff1673ffffffffffffffffffffffffffffffffffffffff168152602001908152602001600020549050919050565b610c2461162a565b73ffffffffffffffffffffffffffffffffffffffff16610c42610d6b565b73ffffffffffffffffffffffffffffffffffffffff1614610c98576040517f08c379a0000000000000000000000000000000000000000000000000000000008152600401610c8f906131bb565b60405180910390fd5b600073ffffffffffffffffffffffffffffffffffffffff1660008054906101000a900473ffffffffffffffffffffffffffffffffffffffff1673ffffffffffffffffffffffffffffffffffffffff167f8be0079c531659141344cd1fd0a4f28419497f9722a3daafe3b4186f6b6457e060405160405180910390a360008060006101000a81548173ffffffffffffffffffffffffffffffffffffffff021916908373ffffffffffffffffffffffffffffffffffffffff160217905550565b600d5481565b6000610d66610d6b565b905090565b60008060009054906101000a900473ffffffffffffffffffffffffffffffffffffffff16905090565b610d9c61162a565b73ffffffffffffffffffffffffffffffffffffffff16610dba610d6b565b73ffffffffffffffffffffffffffffffffffffffff1614610e10576040517f08c379a0000000000000000000000000000000000000000000000000000000008152600401610e07906131bb565b60405180910390fd5b80600a8190555050565b606060068054610e299061356a565b80601f0160208091040260200160405190810160405280929190818152602001828054610e559061356a565b8015610ea25780601f10610e7757610100808354040283529160200191610ea2565b820191906000526020600020905b815481529060010190602001808311610e8557829003601f168201915b5050505050905090565b610eb461162a565b73ffffffffffffffffffffffffffffffffffffffff16610ed2610d6b565b73ffffffffffffffffffffffffffffffffffffffff1614610f28576040517f08c379a0000000000000000000000000000000000000000000000000000000008152600401610f1f906131bb565b60405180910390fd5b610f328282611f58565b5050565b610f3e61162a565b73ffffffffffffffffffffffffffffffffffffffff16610f5c610d6b565b73ffffffffffffffffffffffffffffffffffffffff1614610fb2576040517f08c379a0000000000000000000000000000000000000000000000000000000008152600401610fa9906131bb565b60405180910390fd5b80600e8190555050565b600061107f610fc961162a565b8461107a856040518060600160405280602581526020016136a86025913960026000610ff361162a565b73ffffffffffffffffffffffffffffffffffffffff1673ffffffffffffffffffffffffffffffffffffffff16815260200190815260200160002060008a73ffffffffffffffffffffffffffffffffffffffff1673ffffffffffffffffffffffffffffffffffffffff16815260200190815260200160002054611d639092919063ffffffff16565b61165e565b6001905092915050565b600061109d61109661162a565b8484611829565b6001905092915050565b6110af61162a565b73ffffffffffffffffffffffffffffffffffffffff166110cd610d6b565b73ffffffffffffffffffffffffffffffffffffffff1614611123576040517f08c379a000000000000000000000000000000000000000000000000000000000815260040161111a906131bb565b60405180910390fd5b80600b60016101000a81548160ff0219169083151502179055507f53726dfcaf90650aa7eb35524f4d3220f07413c8d6cb404cc8c18bf5591bc1598160405161116c91906130a3565b60405180910390a150565b61117f61162a565b73ffffffffffffffffffffffffffffffffffffffff1661119d610d6b565b73ffffffffffffffffffffffffffffffffffffffff16146111f3576040517f08c379a00000000000000000000000000000000000000000000000000000000081526004016111ea906131bb565b60405180910390fd5b61121c61271061120e8360035461163290919063ffffffff16565b61164890919063ffffffff16565b600d8190555050565b6000600454905090565b61123761162a565b73ffffffffffffffffffffffffffffffffffffffff16611255610d6b565b73ffffffffffffffffffffffffffffffffffffffff16146112ab576040517f08c379a00000000000000000000000000000000000000000000000000000000081526004016112a2906131bb565b60405180910390fd5b6112d6600f60009054906101000a900473ffffffffffffffffffffffffffffffffffffffff166113aa565b6112df81610abf565b80600f60006101000a81548173ffffffffffffffffffffffffffffffffffffffff021916908373ffffffffffffffffffffffffffffffffffffffff16021790555050565b6000600260008473ffffffffffffffffffffffffffffffffffffffff1673ffffffffffffffffffffffffffffffffffffffff16815260200190815260200160002060008373ffffffffffffffffffffffffffffffffffffffff1673ffffffffffffffffffffffffffffffffffffffff16815260200190815260200160002054905092915050565b6113b261162a565b73ffffffffffffffffffffffffffffffffffffffff166113d0610d6b565b73ffffffffffffffffffffffffffffffffffffffff1614611426576040517f08c379a000000000000000000000000000000000000000000000000000000000815260040161141d906131bb565b60405180910390fd5b6000600860008373ffffffffffffffffffffffffffffffffffffffff1673ffffffffffffffffffffffffffffffffffffffff16815260200190815260200160002060006101000a81548160ff02191690831515021790555050565b61148961162a565b73ffffffffffffffffffffffffffffffffffffffff166114a7610d6b565b73ffffffffffffffffffffffffffffffffffffffff16146114fd576040517f08c379a00000000000000000000000000000000000000000000000000000000081526004016114f4906131bb565b60405180910390fd5b600073ffffffffffffffffffffffffffffffffffffffff168173ffffffffffffffffffffffffffffffffffffffff16141561156d576040517f08c379a00000000000000000000000000000000000000000000000000000000081526004016115649061313b565b60405180910390fd5b8073ffffffffffffffffffffffffffffffffffffffff1660008054906101000a900473ffffffffffffffffffffffffffffffffffffffff1673ffffffffffffffffffffffffffffffffffffffff167f8be0079c531659141344cd1fd0a4f28419497f9722a3daafe3b4186f6b6457e060405160405180910390a3806000806101000a81548173ffffffffffffffffffffffffffffffffffffffff021916908373ffffffffffffffffffffffffffffffffffffffff16021790555050565b600033905090565b60008183611640919061341e565b905092915050565b6000818361165691906133ed565b905092915050565b600073ffffffffffffffffffffffffffffffffffffffff168373ffffffffffffffffffffffffffffffffffffffff1614156116ce576040517f08c379a00000000000000000000000000000000000000000000000000000000081526004016116c59061311b565b60405180910390fd5b600073ffffffffffffffffffffffffffffffffffffffff168273ffffffffffffffffffffffffffffffffffffffff16141561173e576040517f08c379a00000000000000000000000000000000000000000000000000000000081526004016117359061325b565b60405180910390fd5b80600260008573ffffffffffffffffffffffffffffffffffffffff1673ffffffffffffffffffffffffffffffffffffffff16815260200190815260200160002060008473ffffffffffffffffffffffffffffffffffffffff1673ffffffffffffffffffffffffffffffffffffffff168152602001908152602001600020819055508173ffffffffffffffffffffffffffffffffffffffff168373ffffffffffffffffffffffffffffffffffffffff167f8c5be1e5ebec7d5bd14f71427d1e84f3dd0314c0f7b2291e5b200ac8c7c3b9258360405161181c919061327b565b60405180910390a3505050565b6118348383836120fc565b6000600860008573ffffffffffffffffffffffffffffffffffffffff1673ffffffffffffffffffffffffffffffffffffffff16815260200190815260200160002060009054906101000a900460ff161580156118da5750600860008473ffffffffffffffffffffffffffffffffffffffff1673ffffffffffffffffffffffffffffffffffffffff16815260200190815260200160002060009054906101000a900460ff16155b15611bbc57600061190a6127106118fc6009548661163290919063ffffffff16565b61164890919063ffffffff16565b90506119808160016000600f60009054906101000a900473ffffffffffffffffffffffffffffffffffffffff1673ffffffffffffffffffffffffffffffffffffffff1673ffffffffffffffffffffffffffffffffffffffff16815260200190815260200160002054611db890919063ffffffff16565b60016000600f60009054906101000a900473ffffffffffffffffffffffffffffffffffffffff1673ffffffffffffffffffffffffffffffffffffffff1673ffffffffffffffffffffffffffffffffffffffff168152602001908152602001600020819055506000611a10612710611a02600a548761163290919063ffffffff16565b61164890919063ffffffff16565b9050611a6481600160003073ffffffffffffffffffffffffffffffffffffffff1673ffffffffffffffffffffffffffffffffffffffff16815260200190815260200160002054611db890919063ffffffff16565b600160003073ffffffffffffffffffffffffffffffffffffffff1673ffffffffffffffffffffffffffffffffffffffff168152602001908152602001600020819055506000600160003073ffffffffffffffffffffffffffffffffffffffff1673ffffffffffffffffffffffffffffffffffffffff168152602001908152602001600020549050600d548110611afa57600d5490505b6000600e548210159050808015611b1e5750600b60009054906101000a900460ff16155b8015611b7657507f000000000000000000000000000000000000000000000000000000000000000073ffffffffffffffffffffffffffffffffffffffff168873ffffffffffffffffffffffffffffffffffffffff1614155b8015611b8e5750600b60019054906101000a900460ff165b15611ba257600e549150611ba1826123fc565b5b611bb58385611db890919063ffffffff16565b9450505050505b611c0e82600160008773ffffffffffffffffffffffffffffffffffffffff1673ffffffffffffffffffffffffffffffffffffffff168152602001908152602001600020546124d290919063ffffffff16565b600160008673ffffffffffffffffffffffffffffffffffffffff1673ffffffffffffffffffffffffffffffffffffffff16815260200190815260200160002081905550611cb5611c6782846124d290919063ffffffff16565b600160008673ffffffffffffffffffffffffffffffffffffffff1673ffffffffffffffffffffffffffffffffffffffff16815260200190815260200160002054611db890919063ffffffff16565b600160008573ffffffffffffffffffffffffffffffffffffffff1673ffffffffffffffffffffffffffffffffffffffff168152602001908152602001600020819055508273ffffffffffffffffffffffffffffffffffffffff168473ffffffffffffffffffffffffffffffffffffffff167fddf252ad1be2c89b69c2b068fc378daa952ba7f163c4a11628f55a4df523b3ef84604051611d55919061327b565b60405180910390a350505050565b6000838311158290611dab576040517f08c379a0000000000000000000000000000000000000000000000000000000008152600401611da291906130d9565b60405180910390fd5b5082840390509392505050565b60008183611dc69190613397565b905092915050565b600073ffffffffffffffffffffffffffffffffffffffff168273ffffffffffffffffffffffffffffffffffffffff161415611e3e576040517f08c379a0000000000000000000000000000000000000000000000000000000008152600401611e359061319b565b60405180910390fd5b611e5381600354611db890919063ffffffff16565b600381905550611eab81600160008573ffffffffffffffffffffffffffffffffffffffff1673ffffffffffffffffffffffffffffffffffffffff16815260200190815260200160002054611db890919063ffffffff16565b600160008473ffffffffffffffffffffffffffffffffffffffff1673ffffffffffffffffffffffffffffffffffffffff168152602001908152602001600020819055508173ffffffffffffffffffffffffffffffffffffffff16600073ffffffffffffffffffffffffffffffffffffffff167fddf252ad1be2c89b69c2b068fc378daa952ba7f163c4a11628f55a4df523b3ef83604051611f4c919061327b565b60405180910390a35050565b600073ffffffffffffffffffffffffffffffffffffffff168273ffffffffffffffffffffffffffffffffffffffff161415611fc8576040517f08c379a0000000000000000000000000000000000000000000000000000000008152600401611fbf9061321b565b60405180910390fd5b612034816040518060600160405280602281526020016136cd60229139600160008673ffffffffffffffffffffffffffffffffffffffff1673ffffffffffffffffffffffffffffffffffffffff16815260200190815260200160002054611d639092919063ffffffff16565b600160008473ffffffffffffffffffffffffffffffffffffffff1673ffffffffffffffffffffffffffffffffffffffff1681526020019081526020016000208190555061208c816003546124d290919063ffffffff16565b600381905550600073ffffffffffffffffffffffffffffffffffffffff168273ffffffffffffffffffffffffffffffffffffffff167fddf252ad1be2c89b69c2b068fc378daa952ba7f163c4a11628f55a4df523b3ef836040516120f0919061327b565b60405180910390a35050565b600073ffffffffffffffffffffffffffffffffffffffff168373ffffffffffffffffffffffffffffffffffffffff16141561216c576040517f08c379a0000000000000000000000000000000000000000000000000000000008152600401612163906130fb565b60405180910390fd5b600073ffffffffffffffffffffffffffffffffffffffff168273ffffffffffffffffffffffffffffffffffffffff1614156121dc576040517f08c379a00000000000000000000000000000000000000000000000000000000081526004016121d3906131fb565b60405180910390fd5b6000811161221f576040517f08c379a0000000000000000000000000000000000000000000000000000000008152600401612216906131db565b60405180910390fd5b80600160008573ffffffffffffffffffffffffffffffffffffffff1673ffffffffffffffffffffffffffffffffffffffff16815260200190815260200160002054116122a0576040517f08c379a00000000000000000000000000000000000000000000000000000000081526004016122979061317b565b60405180910390fd5b600c546122f582600160008673ffffffffffffffffffffffffffffffffffffffff1673ffffffffffffffffffffffffffffffffffffffff16815260200190815260200160002054611db890919063ffffffff16565b1115612336576040517f08c379a000000000000000000000000000000000000000000000000000000000815260040161232d9061323b565b60405180910390fd5b61233e610d6b565b73ffffffffffffffffffffffffffffffffffffffff168373ffffffffffffffffffffffffffffffffffffffff16141580156123ac575061237c610d6b565b73ffffffffffffffffffffffffffffffffffffffff168273ffffffffffffffffffffffffffffffffffffffff1614155b156123f757600d548111156123f6576040517f08c379a00000000000000000000000000000000000000000000000000000000081526004016123ed9061315b565b60405180910390fd5b5b505050565b6001600b60006101000a81548160ff021916908315150217905550600061242d60028361164890919063ffffffff16565b9050600061244482846124d290919063ffffffff16565b90506000479050612454836124e8565b600061246982476124d290919063ffffffff16565b905061247583826127a6565b7f17bbfb9a6069321b6ded73bd96327c9e6b7212a5cd51ff219cd61370acafb5618482856040516124a8939291906132f0565b60405180910390a1505050506000600b60006101000a81548160ff02191690831515021790555050565b600081836124e09190613478565b905092915050565b6000600267ffffffffffffffff81111561252b577f4e487b7100000000000000000000000000000000000000000000000000000000600052604160045260246000fd5b6040519080825280602002602001820160405280156125595781602001602082028036833780820191505090505b5090503081600081518110612597577f4e487b7100000000000000000000000000000000000000000000000000000000600052603260045260246000fd5b602002602001019073ffffffffffffffffffffffffffffffffffffffff16908173ffffffffffffffffffffffffffffffffffffffff16815250507f000000000000000000000000000000000000000000000000000000000000000073ffffffffffffffffffffffffffffffffffffffff1663ad5c46486040518163ffffffff1660e01b815260040160206040518083038186803b15801561263757600080fd5b505afa15801561264b573d6000803e3d6000fd5b505050506040513d601f19601f8201168201806040525081019061266f9190612928565b816001815181106126a9577f4e487b7100000000000000000000000000000000000000000000000000000000600052603260045260246000fd5b602002602001019073ffffffffffffffffffffffffffffffffffffffff16908173ffffffffffffffffffffffffffffffffffffffff168152505061270e307f00000000000000000000000000000000000000000000000000000000000000008461165e565b7f000000000000000000000000000000000000000000000000000000000000000073ffffffffffffffffffffffffffffffffffffffff1663791ac9478360008430426040518663ffffffff1660e01b8152600401612770959493929190613296565b600060405180830381600087803b15801561278a57600080fd5b505af115801561279e573d6000803e3d6000fd5b505050505050565b6127d1307f00000000000000000000000000000000000000000000000000000000000000008461165e565b7f000000000000000000000000000000000000000000000000000000000000000073ffffffffffffffffffffffffffffffffffffffff1663f305d71982308560008061281b610d6b565b426040518863ffffffff1660e01b815260040161283d96959493929190613042565b6060604051808303818588803b15801561285657600080fd5b505af115801561286a573d6000803e3d6000fd5b50505050506040513d601f19601f8201168201806040525081019061288f9190612a6a565b5050505050565b6000813590506128a58161363a565b92915050565b6000815190506128ba8161363a565b92915050565b6000813590506128cf81613651565b92915050565b6000813590506128e481613668565b92915050565b6000815190506128f981613668565b92915050565b60006020828403121561291157600080fd5b600061291f84828501612896565b91505092915050565b60006020828403121561293a57600080fd5b6000612948848285016128ab565b91505092915050565b6000806040838503121561296457600080fd5b600061297285828601612896565b925050602061298385828601612896565b9150509250929050565b6000806000606084860312156129a257600080fd5b60006129b086828701612896565b93505060206129c186828701612896565b92505060406129d2868287016128d5565b9150509250925092565b600080604083850312156129ef57600080fd5b60006129fd85828601612896565b9250506020612a0e858286016128d5565b9150509250929050565b600060208284031215612a2a57600080fd5b6000612a38848285016128c0565b91505092915050565b600060208284031215612a5357600080fd5b6000612a61848285016128d5565b91505092915050565b600080600060608486031215612a7f57600080fd5b6000612a8d868287016128ea565b9350506020612a9e868287016128ea565b9250506040612aaf868287016128ea565b9150509250925092565b6000612ac58383612ad1565b60208301905092915050565b612ada816134ac565b82525050565b612ae9816134ac565b82525050565b6000612afa82613352565b612b048185613375565b9350612b0f83613342565b8060005b83811015612b40578151612b278882612ab9565b9750612b3283613368565b925050600181019050612b13565b5085935050505092915050565b612b56816134be565b82525050565b612b6581613501565b82525050565b612b7481613525565b82525050565b6000612b858261335d565b612b8f8185613386565b9350612b9f818560208601613537565b612ba881613629565b840191505092915050565b6000612bc0602583613386565b91507f42455032303a207472616e736665722066726f6d20746865207a65726f20616460008301527f64726573730000000000000000000000000000000000000000000000000000006020830152604082019050919050565b6000612c26602483613386565b91507f42455032303a20617070726f76652066726f6d20746865207a65726f2061646460008301527f72657373000000000000000000000000000000000000000000000000000000006020830152604082019050919050565b6000612c8c602683613386565b91507f4f776e61626c653a206e6577206f776e657220697320746865207a65726f206160008301527f64647265737300000000000000000000000000000000000000000000000000006020830152604082019050919050565b6000612cf2602883613386565b91507f5472616e7366657220616d6f756e74206578636565647320746865206d61785460008301527f78416d6f756e742e0000000000000000000000000000000000000000000000006020830152604082019050919050565b6000612d58601f83613386565b91507f5472616e7366657220616d6f756e7420657863656564732062616c616e6365006000830152602082019050919050565b6000612d98601f83613386565b91507f42455032303a206d696e7420746f20746865207a65726f2061646472657373006000830152602082019050919050565b6000612dd8602083613386565b91507f4f776e61626c653a2063616c6c6572206973206e6f7420746865206f776e65726000830152602082019050919050565b6000612e18602983613386565b91507f5472616e7366657220616d6f756e74206d75737420626520677265617465722060008301527f7468616e207a65726f00000000000000000000000000000000000000000000006020830152604082019050919050565b6000612e7e602383613386565b91507f42455032303a207472616e7366657220746f20746865207a65726f206164647260008301527f65737300000000000000000000000000000000000000000000000000000000006020830152604082019050919050565b6000612ee4602183613386565b91507f42455032303a206275726e2066726f6d20746865207a65726f2061646472657360008301527f73000000000000000000000000000000000000000000000000000000000000006020830152604082019050919050565b6000612f4a602783613386565b91507f526563697069656e742062616c616e6365206578636565647320686f6c64696e60008301527f67206c696d6974000000000000000000000000000000000000000000000000006020830152604082019050919050565b6000612fb0602283613386565b91507f42455032303a20617070726f766520746f20746865207a65726f20616464726560008301527f73730000000000000000000000000000000000000000000000000000000000006020830152604082019050919050565b613012816134ea565b82525050565b613021816134f4565b82525050565b600060208201905061303c6000830184612ae0565b92915050565b600060c0820190506130576000830189612ae0565b6130646020830188613009565b6130716040830187612b6b565b61307e6060830186612b6b565b61308b6080830185612ae0565b61309860a0830184613009565b979650505050505050565b60006020820190506130b86000830184612b4d565b92915050565b60006020820190506130d36000830184612b5c565b92915050565b600060208201905081810360008301526130f38184612b7a565b905092915050565b6000602082019050818103600083015261311481612bb3565b9050919050565b6000602082019050818103600083015261313481612c19565b9050919050565b6000602082019050818103600083015261315481612c7f565b9050919050565b6000602082019050818103600083015261317481612ce5565b9050919050565b6000602082019050818103600083015261319481612d4b565b9050919050565b600060208201905081810360008301526131b481612d8b565b9050919050565b600060208201905081810360008301526131d481612dcb565b9050919050565b600060208201905081810360008301526131f481612e0b565b9050919050565b6000602082019050818103600083015261321481612e71565b9050919050565b6000602082019050818103600083015261323481612ed7565b9050919050565b6000602082019050818103600083015261325481612f3d565b9050919050565b6000602082019050818103600083015261327481612fa3565b9050919050565b60006020820190506132906000830184613009565b92915050565b600060a0820190506132ab6000830188613009565b6132b86020830187612b6b565b81810360408301526132ca8186612aef565b90506132d96060830185612ae0565b6132e66080830184613009565b9695505050505050565b60006060820190506133056000830186613009565b6133126020830185613009565b61331f6040830184613009565b949350505050565b600060208201905061333c6000830184613018565b92915050565b6000819050602082019050919050565b600081519050919050565b600081519050919050565b6000602082019050919050565b600082825260208201905092915050565b600082825260208201905092915050565b60006133a2826134ea565b91506133ad836134ea565b9250827fffffffffffffffffffffffffffffffffffffffffffffffffffffffffffffffff038211156133e2576133e161359c565b5b828201905092915050565b60006133f8826134ea565b9150613403836134ea565b925082613413576134126135cb565b5b828204905092915050565b6000613429826134ea565b9150613434836134ea565b9250817fffffffffffffffffffffffffffffffffffffffffffffffffffffffffffffffff048311821515161561346d5761346c61359c565b5b828202905092915050565b6000613483826134ea565b915061348e836134ea565b9250828210156134a1576134a061359c565b5b828203905092915050565b60006134b7826134ca565b9050919050565b60008115159050919050565b600073ffffffffffffffffffffffffffffffffffffffff82169050919050565b6000819050919050565b600060ff82169050919050565b600061350c82613513565b9050919050565b600061351e826134ca565b9050919050565b6000613530826134ea565b9050919050565b60005b8381101561355557808201518184015260208101905061353a565b83811115613564576000848401525b50505050565b6000600282049050600182168061358257607f821691505b60208210811415613596576135956135fa565b5b50919050565b7f4e487b7100000000000000000000000000000000000000000000000000000000600052601160045260246000fd5b7f4e487b7100000000000000000000000000000000000000000000000000000000600052601260045260246000fd5b7f4e487b7100000000000000000000000000000000000000000000000000000000600052602260045260246000fd5b6000601f19601f8301169050919050565b613643816134ac565b811461364e57600080fd5b50565b61365a816134be565b811461366557600080fd5b50565b613671816134ea565b811461367c57600080fd5b5056fe42455032303a207472616e7366657220616d6f756e74206578636565647320616c6c6f77616e636542455032303a2064656372656173656420616c6c6f77616e63652062656c6f77207a65726f42455032303a206275726e20616d6f756e7420657863656564732062616c616e6365a264697066735822122030824cac5e90b1bd9a3200b863df0687420141658423036b29ad547ee6b7fc5264736f6c63430008000033",
  "immutableReferences": {
    "58": [
      {
        "length": 32,
        "start": 2130
      },
      {
        "length": 32,
        "start": 9683
      },
      {
        "length": 32,
        "start": 9961
      },
      {
        "length": 32,
        "start": 10000
      },
      {
        "length": 32,
        "start": 10156
      },
      {
        "length": 32,
        "start": 10195
      }
    ],
    "60": [
      {
        "length": 32,
        "start": 2968
      },
      {
        "length": 32,
        "start": 6951
      }
    ]
  },
  "source": "// SPDX-License-Identifier: MIT\r\n\r\npragma solidity ^0.8.0;\r\n\r\nimport \"./interfaces/IBEP20.sol\";\r\nimport \"./interfaces/uniswap/IUniswapV2Factory.sol\";\r\nimport \"./interfaces/uniswap/IUniswapV2Pair.sol\";\r\nimport \"./interfaces/uniswap/IUniswapV2Router02.sol\";\r\nimport \"@openzeppelin/contracts/utils/Context.sol\";\r\nimport \"@openzeppelin/contracts/utils/math/SafeMath.sol\";\r\nimport \"@openzeppelin/contracts/access/Ownable.sol\";\r\n\r\ncontract HjaelpCoin is Context, IBEP20, Ownable {\r\n  using SafeMath for uint256;\r\n  \r\n  uint256 private constant MAX = ~uint256(0);\r\n  address private constant routerAddress = 0x7a250d5630B4cF539739dF2C5dAcb4c659F2488D;\r\n\r\n  mapping (address => uint256) private _balances;\r\n  mapping (address => mapping (address => uint256)) private _allowances;\r\n\r\n  uint256 private _totalSupply;\r\n  uint256 private _maxSupply;\r\n  uint8 private _decimals;\r\n  string private _symbol;\r\n  string private _name;\r\n\r\n  mapping (address => bool) private _isExcludedFromFee;\r\n  uint256 public _taxFee;\r\n  uint256 public _liquidityFee;\r\n\r\n  IUniswapV2Router02 public immutable uniswapV2Router;\r\n  address public immutable uniswapV2Pair;\r\n  \r\n  bool inSwapAndLiquify;\r\n  bool public swapAndLiquifyEnabled = true;\r\n  \r\n  uint256 public _maxHoldAmount;\r\n  uint256 public _maxTxAmount;\r\n  uint256 private _minTokensToAddToLiquidity;\r\n\r\n  address private providerAddress;\r\n\r\n  event SwapAndLiquifyEnabledUpdated(bool enabled);\r\n  event SwapAndLiquify(\r\n    uint256 tokensSwapped,\r\n    uint256 ethReceived,\r\n    uint256 tokensIntoLiqudity\r\n  );\r\n  \r\n  modifier lockTheSwap {\r\n    inSwapAndLiquify = true;\r\n    _;\r\n    inSwapAndLiquify = false;\r\n  }\r\n\r\n  constructor() {\r\n    _name = \"HjaelpCoin\";\r\n    _symbol = \"HJAELP\";\r\n    _decimals = 18;\r\n    _maxSupply = 1000000000 * (10 ** 18);    // Max Supply: 1B\r\n    _totalSupply = 0;\r\n\r\n    // unit of 0.01%\r\n    _taxFee = 400;\r\n    _liquidityFee = 400;\r\n\r\n    _maxHoldAmount = 1000000 * (10 ** 18);   // Holding Limit: 1M (0.1% of Total Supply)\r\n    _maxTxAmount = MAX;                      // Transaction Limit (Max as default)\r\n    _minTokensToAddToLiquidity = 10000 * (10 ** 18);    // 0.1M\r\n\r\n    // The service provider wallet that takes tax from transactions\r\n    providerAddress = owner();\r\n\r\n    IUniswapV2Router02 _uniswapV2Router = IUniswapV2Router02(routerAddress);\r\n    // Create a uniswap pair for this new token\r\n    address _uniswapV2Pair = IUniswapV2Factory(_uniswapV2Router.factory())\r\n      .createPair(address(this), _uniswapV2Router.WETH());\r\n\r\n    // Set the rest of the contract variables\r\n    uniswapV2Router = _uniswapV2Router;\r\n    uniswapV2Pair = _uniswapV2Pair;\r\n    \r\n    // Exclude owner and this contract from fee\r\n    _isExcludedFromFee[owner()] = true;\r\n    _isExcludedFromFee[address(this)] = true;\r\n    _isExcludedFromFee[providerAddress] = true;\r\n    _isExcludedFromFee[routerAddress] = true;\r\n    _isExcludedFromFee[_uniswapV2Pair] = true;\r\n  }\r\n\r\n  /**\r\n   * @dev Returns the bep token owner.\r\n   */\r\n  function getOwner() external view override returns (address) {\r\n    return owner();\r\n  }\r\n\r\n  /**\r\n   * @dev Returns the token decimals.\r\n   */\r\n  function decimals() external view override returns (uint8) {\r\n    return _decimals;\r\n  }\r\n\r\n  /**\r\n   * @dev Returns the token symbol.\r\n   */\r\n  function symbol() external view override returns (string memory) {\r\n    return _symbol;\r\n  }\r\n\r\n  /**\r\n  * @dev Returns the token name.\r\n  */\r\n  function name() external view override returns (string memory) {\r\n    return _name;\r\n  }\r\n\r\n  /**\r\n   * @dev See {BEP20-totalSupply}.\r\n   */\r\n  function totalSupply() external view override returns (uint256) {\r\n    return _totalSupply;\r\n  }\r\n\r\n  /**\r\n   * @dev Maximum Supply of token.\r\n   */\r\n  function maxSupply() external view returns (uint256) {\r\n    return _maxSupply;\r\n  }\r\n\r\n  /**\r\n   * @dev See {BEP20-balanceOf}.\r\n   */\r\n  function balanceOf(address account) external view override returns (uint256) {\r\n    return _balances[account];\r\n  }\r\n\r\n  /**\r\n   * @dev See {BEP20-transfer}.\r\n   *\r\n   * Requirements:\r\n   *\r\n   * - `recipient` cannot be the zero address.\r\n   * - the caller must have a balance of at least `amount`.\r\n   */\r\n  function transfer(address recipient, uint256 amount) external override returns (bool) {\r\n    _transfer(_msgSender(), recipient, amount);\r\n    return true;\r\n  }\r\n\r\n  /**\r\n   * @dev See {BEP20-allowance}.\r\n   */\r\n  function allowance(address owner, address spender) external view override returns (uint256) {\r\n    return _allowances[owner][spender];\r\n  }\r\n\r\n  /**\r\n   * @dev See {BEP20-approve}.\r\n   *\r\n   * Requirements:\r\n   *\r\n   * - `spender` cannot be the zero address.\r\n   */\r\n  function approve(address spender, uint256 amount) external override returns (bool) {\r\n    _approve(_msgSender(), spender, amount);\r\n    return true;\r\n  }\r\n\r\n  /**\r\n   * @dev See {BEP20-transferFrom}.\r\n   *\r\n   * Emits an {Approval} event indicating the updated allowance. This is not\r\n   * required by the EIP. See the note at the beginning of {BEP20};\r\n   *\r\n   * Requirements:\r\n   * - `sender` and `recipient` cannot be the zero address.\r\n   * - `sender` must have a balance of at least `amount`.\r\n   * - the caller must have allowance for `sender`'s tokens of at least\r\n   * `amount`.\r\n   */\r\n  function transferFrom(address sender, address recipient, uint256 amount) external override returns (bool) {\r\n    _transfer(sender, recipient, amount);\r\n    _approve(sender, _msgSender(), _allowances[sender][_msgSender()].sub(amount, \"BEP20: transfer amount exceeds allowance\"));\r\n    return true;\r\n  }\r\n\r\n  /**\r\n   * @dev Atomically increases the allowance granted to `spender` by the caller.\r\n   *\r\n   * This is an alternative to {approve} that can be used as a mitigation for\r\n   * problems described in {BEP20-approve}.\r\n   *\r\n   * Emits an {Approval} event indicating the updated allowance.\r\n   *\r\n   * Requirements:\r\n   *\r\n   * - `spender` cannot be the zero address.\r\n   */\r\n  function increaseAllowance(address spender, uint256 addedValue) public returns (bool) {\r\n    _approve(_msgSender(), spender, _allowances[_msgSender()][spender].add(addedValue));\r\n    return true;\r\n  }\r\n\r\n  /**\r\n   * @dev Atomically decreases the allowance granted to `spender` by the caller.\r\n   *\r\n   * This is an alternative to {approve} that can be used as a mitigation for\r\n   * problems described in {BEP20-approve}.\r\n   *\r\n   * Emits an {Approval} event indicating the updated allowance.\r\n   *\r\n   * Requirements:\r\n   *\r\n   * - `spender` cannot be the zero address.\r\n   * - `spender` must have allowance for the caller of at least\r\n   * `subtractedValue`.\r\n   */\r\n  function decreaseAllowance(address spender, uint256 subtractedValue) public returns (bool) {\r\n    _approve(_msgSender(), spender, _allowances[_msgSender()][spender].sub(subtractedValue, \"BEP20: decreased allowance below zero\"));\r\n    return true;\r\n  }\r\n\r\n  /**\r\n   * @dev Creates `amount` tokens and assigns them to `msg.sender`, increasing\r\n   * the total supply.\r\n   *\r\n   * Requirements\r\n   *\r\n   * - `msg.sender` must be the token owner\r\n   */\r\n  function mint(address account, uint256 amount) public onlyOwner returns (bool) {\r\n    _mint(account, amount);\r\n    return true;\r\n  }\r\n\r\n  /** @dev Creates `amount` tokens and assigns them to `account`, increasing\r\n   * the total supply.\r\n   *\r\n   * Emits a {Transfer} event with `from` set to the zero address.\r\n   *\r\n   * Requirements\r\n   *\r\n   * - `to` cannot be the zero address.\r\n   */\r\n  function _mint(address account, uint256 amount) internal {\r\n    require(account != address(0), \"BEP20: mint to the zero address\");\r\n\r\n    _totalSupply = _totalSupply.add(amount);\r\n    _balances[account] = _balances[account].add(amount);\r\n    emit Transfer(address(0), account, amount);\r\n  }\r\n\r\n  \r\n  /**\r\n   * @dev Destroys `amount` tokens from `account`, reducing the\r\n   * the total supply.\r\n   *\r\n   * Requirements\r\n   *\r\n   * - `msg.sender` must be the token owner\r\n   */\r\n  function burn(address account, uint256 amount) public onlyOwner {\r\n    _burn(account, amount);\r\n  }\r\n\r\n  /**\r\n   * @dev Destroys `amount` tokens from `account`, reducing the\r\n   * total supply.\r\n   *\r\n   * Emits a {Transfer} event with `to` set to the zero address.\r\n   *\r\n   * Requirements\r\n   *\r\n   * - `account` cannot be the zero address.\r\n   * - `account` must have at least `amount` tokens.\r\n   */\r\n  function _burn(address account, uint256 amount) internal {\r\n    require(account != address(0), \"BEP20: burn from the zero address\");\r\n\r\n    _balances[account] = _balances[account].sub(amount, \"BEP20: burn amount exceeds balance\");\r\n    _totalSupply = _totalSupply.sub(amount);\r\n    emit Transfer(account, address(0), amount);\r\n  }\r\n\r\n  /**\r\n   * @dev Sets `amount` as the allowance of `spender` over the `owner`s tokens.\r\n   *\r\n   * This is internal function is equivalent to `approve`, and can be used to\r\n   * e.g. set automatic allowances for certain subsystems, etc.\r\n   *\r\n   * Emits an {Approval} event.\r\n   *\r\n   * Requirements:\r\n   *\r\n   * - `owner` cannot be the zero address.\r\n   * - `spender` cannot be the zero address.\r\n   */\r\n  function _approve(address owner, address spender, uint256 amount) internal {\r\n    require(owner != address(0), \"BEP20: approve from the zero address\");\r\n    require(spender != address(0), \"BEP20: approve to the zero address\");\r\n\r\n    _allowances[owner][spender] = amount;\r\n    emit Approval(owner, spender, amount);\r\n  }\r\n\r\n  /**\r\n   * @dev Destroys `amount` tokens from `account`.`amount` is then deducted\r\n   * from the caller's allowance.\r\n   *\r\n   * See {_burn} and {_approve}.\r\n   */\r\n  function _burnFrom(address account, uint256 amount) internal {\r\n    _burn(account, amount);\r\n    _approve(account, _msgSender(), _allowances[account][_msgSender()].sub(amount, \"BEP20: burn amount exceeds allowance\"));\r\n  }\r\n\r\n  function excludeFromFee(address account) public onlyOwner {\r\n    _isExcludedFromFee[account] = true;\r\n  }\r\n  \r\n  function includeInFee(address account) public onlyOwner {\r\n    _isExcludedFromFee[account] = false;\r\n  }\r\n  \r\n  function setTaxFeePercent(uint256 taxFee) external onlyOwner {\r\n    _taxFee = taxFee;\r\n  }\r\n  \r\n  function setLiquidityFeePercent(uint256 liquidityFee) external onlyOwner {\r\n    _liquidityFee = liquidityFee;\r\n  }\r\n\r\n  // unit of 0.01%\r\n  function setMaxHoldingPercent(uint256 maxHoldingPercent) external onlyOwner {\r\n    _maxHoldAmount = _totalSupply.mul(maxHoldingPercent).div(10000);\r\n  }\r\n\r\n  // unit of 0.01%\r\n  function setMaxTxPercent(uint256 maxTxPercent) external onlyOwner {\r\n    _maxTxAmount = _totalSupply.mul(maxTxPercent).div(10000);\r\n  }\r\n  \r\n  function setMinTokensToAddToLiquidity(uint256 minTokensToAddToLiquidity) external onlyOwner {\r\n    _minTokensToAddToLiquidity = minTokensToAddToLiquidity;\r\n  }\r\n\r\n  function setSwapAndLiquifyEnabled(bool _enabled) public onlyOwner {\r\n    swapAndLiquifyEnabled = _enabled;\r\n    emit SwapAndLiquifyEnabledUpdated(_enabled);\r\n  }\r\n\r\n  function setProviderAddress(address newProviderAddress) external onlyOwner {\r\n    // Remove the current provider from Tax Exclusion List.\r\n    includeInFee(providerAddress);\r\n\r\n    // Remove the current provider from Tax Exclusion List.\r\n    excludeFromFee(newProviderAddress);\r\n    \r\n    providerAddress = newProviderAddress;\r\n  }\r\n\r\n  /**\r\n   * @dev Moves tokens `amount` from `sender` to `recipient`.\r\n   *\r\n   * This is internal function is equivalent to {transfer}, and can be used to\r\n   * e.g. implement automatic token fees, slashing mechanisms, etc.\r\n   *\r\n   * Emits a {Transfer} event.\r\n   *\r\n   * Requirements:\r\n   *\r\n   * - `sender` cannot be the zero address.\r\n   * - `recipient` cannot be the zero address.\r\n   * - `sender` must have a balance of at least `amount`.\r\n   */\r\n  function _transfer(address sender, address recipient, uint256 amount) internal {\r\n    checkTxValid(sender, recipient, amount);\r\n\r\n    uint256 totalFee = 0;\r\n    if (!_isExcludedFromFee[sender] && !_isExcludedFromFee[recipient]) {\r\n      // Take tax of transaction and transfer to the provider wallet.\r\n      uint256 taxFeeAmount = amount.mul(_taxFee).div(10000);\r\n      _balances[providerAddress] = _balances[providerAddress].add(taxFeeAmount);\r\n      \r\n      // Take tax of transaction and add to liquidity.\r\n      uint256 liquidityFeeAmount = amount.mul(_liquidityFee).div(10000);\r\n      _balances[address(this)] = _balances[address(this)].add(liquidityFeeAmount);\r\n\r\n      // is the token balance of this contract address over the min number of\r\n      // tokens that we need to initiate a swap + liquidity lock?\r\n      // also, don't get caught in a circular liquidity event.\r\n      // also, don't swap & liquify if sender is uniswap pair.\r\n      uint256 contractTokenBalance = _balances[address(this)];\r\n      \r\n      if(contractTokenBalance >= _maxTxAmount)\r\n      {\r\n        contractTokenBalance = _maxTxAmount;\r\n      }\r\n      \r\n      bool overMinTokenBalance = contractTokenBalance >= _minTokensToAddToLiquidity;\r\n      if (\r\n          overMinTokenBalance &&\r\n          !inSwapAndLiquify &&\r\n          sender != uniswapV2Pair &&\r\n          swapAndLiquifyEnabled\r\n      ) {\r\n          contractTokenBalance = _minTokensToAddToLiquidity;\r\n          //add liquidity\r\n          swapAndLiquify(contractTokenBalance);\r\n      }\r\n      \r\n      totalFee = taxFeeAmount.add(liquidityFeeAmount);\r\n    }\r\n    \r\n    _balances[sender] = _balances[sender].sub(amount);\r\n    _balances[recipient] = _balances[recipient].add(amount.sub(totalFee));\r\n    emit Transfer(sender, recipient, amount);\r\n  }\r\n  \r\n  function checkTxValid(address sender, address recipient, uint256 amount) internal view {\r\n    require(sender != address(0), \"BEP20: transfer from the zero address\");\r\n    require(recipient != address(0), \"BEP20: transfer to the zero address\");\r\n    require(amount > 0, \"Transfer amount must be greater than zero\");\r\n    require(_balances[sender] > amount, \"Transfer amount exceeds balance\");\r\n    require(_balances[recipient].add(amount) <= _maxHoldAmount, \"Recipient balance exceeds holding limit\");\r\n    if (sender != owner() && recipient != owner())\r\n      require(amount <= _maxTxAmount, \"Transfer amount exceeds the maxTxAmount.\");\r\n  }\r\n  \r\n  function swapAndLiquify(uint256 contractTokenBalance) private lockTheSwap {\r\n    // split the contract balance into halves\r\n    uint256 half = contractTokenBalance.div(2);\r\n    uint256 otherHalf = contractTokenBalance.sub(half);\r\n\r\n    // capture the contract's current ETH balance.\r\n    // this is so that we can capture exactly the amount of ETH that the\r\n    // swap creates, and not make the liquidity event include any ETH that\r\n    // has been manually sent to the contract\r\n    uint256 initialBalance = address(this).balance;\r\n\r\n    // swap tokens for ETH\r\n    swapTokensForEth(half); // <- this breaks the ETH -> HATE swap when swap+liquify is triggered\r\n\r\n    // how much ETH did we just swap into?\r\n    uint256 newBalance = address(this).balance.sub(initialBalance);\r\n\r\n    // add liquidity to uniswap\r\n    addLiquidity(otherHalf, newBalance);\r\n    \r\n    emit SwapAndLiquify(half, newBalance, otherHalf);\r\n  }\r\n\r\n  function swapTokensForEth(uint256 tokenAmount) private {\r\n    // generate the uniswap pair path of token -> weth\r\n    address[] memory path = new address[](2);\r\n    path[0] = address(this);\r\n    path[1] = uniswapV2Router.WETH();\r\n\r\n    _approve(address(this), address(uniswapV2Router), tokenAmount);\r\n\r\n    // make the swap\r\n    uniswapV2Router.swapExactTokensForETHSupportingFeeOnTransferTokens(\r\n      tokenAmount,\r\n      0, // accept any amount of ETH\r\n      path,\r\n      address(this),\r\n      block.timestamp\r\n    );\r\n  }\r\n\r\n  function addLiquidity(uint256 tokenAmount, uint256 ethAmount) private {\r\n    // approve token transfer to cover all possible scenarios\r\n    _approve(address(this), address(uniswapV2Router), tokenAmount);\r\n\r\n    // add the liquidity\r\n    uniswapV2Router.addLiquidityETH{value: ethAmount}(\r\n      address(this),\r\n      tokenAmount,\r\n      0, // slippage is unavoidable\r\n      0, // slippage is unavoidable\r\n      owner(),\r\n      block.timestamp\r\n    );\r\n  }\r\n\r\n}",
  "sourcePath": "E:/work/blockchain/hjaelp/work/hjaelpcoin-contracts/contracts/HjaelpCoin.sol",
  "compiler": {
    "name": "solc",
    "version": "0.8.0+commit.c7dfd78e.Emscripten.clang"
  },
  "schemaVersion": "3.3.4",
  "updatedAt": "2021-05-15T01:47:35.760Z",
  "networkType": "ethereum",
  "devdoc": {
    "kind": "dev",
    "methods": {
      "allowance(address,address)": {
        "details": "See {BEP20-allowance}."
      },
      "approve(address,uint256)": {
        "details": "See {BEP20-approve}. Requirements: - `spender` cannot be the zero address."
      },
      "balanceOf(address)": {
        "details": "See {BEP20-balanceOf}."
      },
      "burn(address,uint256)": {
        "details": "Destroys `amount` tokens from `account`, reducing the the total supply. Requirements - `msg.sender` must be the token owner"
      },
      "decimals()": {
        "details": "Returns the token decimals."
      },
      "decreaseAllowance(address,uint256)": {
        "details": "Atomically decreases the allowance granted to `spender` by the caller. This is an alternative to {approve} that can be used as a mitigation for problems described in {BEP20-approve}. Emits an {Approval} event indicating the updated allowance. Requirements: - `spender` cannot be the zero address. - `spender` must have allowance for the caller of at least `subtractedValue`."
      },
      "getOwner()": {
        "details": "Returns the bep token owner."
      },
      "increaseAllowance(address,uint256)": {
        "details": "Atomically increases the allowance granted to `spender` by the caller. This is an alternative to {approve} that can be used as a mitigation for problems described in {BEP20-approve}. Emits an {Approval} event indicating the updated allowance. Requirements: - `spender` cannot be the zero address."
      },
      "maxSupply()": {
        "details": "Maximum Supply of token."
      },
      "mint(address,uint256)": {
        "details": "Creates `amount` tokens and assigns them to `msg.sender`, increasing the total supply. Requirements - `msg.sender` must be the token owner"
      },
      "name()": {
        "details": "Returns the token name."
      },
      "owner()": {
        "details": "Returns the address of the current owner."
      },
      "renounceOwnership()": {
        "details": "Leaves the contract without owner. It will not be possible to call `onlyOwner` functions anymore. Can only be called by the current owner. NOTE: Renouncing ownership will leave the contract without an owner, thereby removing any functionality that is only available to the owner."
      },
      "symbol()": {
        "details": "Returns the token symbol."
      },
      "totalSupply()": {
        "details": "See {BEP20-totalSupply}."
      },
      "transfer(address,uint256)": {
        "details": "See {BEP20-transfer}. Requirements: - `recipient` cannot be the zero address. - the caller must have a balance of at least `amount`."
      },
      "transferFrom(address,address,uint256)": {
        "details": "See {BEP20-transferFrom}. Emits an {Approval} event indicating the updated allowance. This is not required by the EIP. See the note at the beginning of {BEP20}; Requirements: - `sender` and `recipient` cannot be the zero address. - `sender` must have a balance of at least `amount`. - the caller must have allowance for `sender`'s tokens of at least `amount`."
      },
      "transferOwnership(address)": {
        "details": "Transfers ownership of the contract to a new account (`newOwner`). Can only be called by the current owner."
      }
    },
    "version": 1
  },
  "userdoc": {
    "kind": "user",
    "methods": {},
    "version": 1
  }
}