{
  "contractName": "HjaelpCoin",
  "abi": [
    {
      "inputs": [],
      "stateMutability": "nonpayable",
      "type": "constructor"
    },
    {
      "anonymous": false,
      "inputs": [
        {
          "indexed": true,
          "internalType": "address",
          "name": "owner",
          "type": "address"
        },
        {
          "indexed": true,
          "internalType": "address",
          "name": "spender",
          "type": "address"
        },
        {
          "indexed": false,
          "internalType": "uint256",
          "name": "value",
          "type": "uint256"
        }
      ],
      "name": "Approval",
      "type": "event"
    },
    {
      "anonymous": false,
      "inputs": [
        {
          "indexed": true,
          "internalType": "address",
          "name": "previousOwner",
          "type": "address"
        },
        {
          "indexed": true,
          "internalType": "address",
          "name": "newOwner",
          "type": "address"
        }
      ],
      "name": "OwnershipTransferred",
      "type": "event"
    },
    {
      "anonymous": false,
      "inputs": [
        {
          "indexed": false,
          "internalType": "uint256",
          "name": "tokensSwapped",
          "type": "uint256"
        },
        {
          "indexed": false,
          "internalType": "uint256",
          "name": "ethReceived",
          "type": "uint256"
        },
        {
          "indexed": false,
          "internalType": "uint256",
          "name": "tokensIntoLiqudity",
          "type": "uint256"
        }
      ],
      "name": "SwapAndLiquify",
      "type": "event"
    },
    {
      "anonymous": false,
      "inputs": [
        {
          "indexed": false,
          "internalType": "bool",
          "name": "enabled",
          "type": "bool"
        }
      ],
      "name": "SwapAndLiquifyEnabledUpdated",
      "type": "event"
    },
    {
      "anonymous": false,
      "inputs": [
        {
          "indexed": true,
          "internalType": "address",
          "name": "from",
          "type": "address"
        },
        {
          "indexed": true,
          "internalType": "address",
          "name": "to",
          "type": "address"
        },
        {
          "indexed": false,
          "internalType": "uint256",
          "name": "value",
          "type": "uint256"
        }
      ],
      "name": "Transfer",
      "type": "event"
    },
    {
      "inputs": [],
      "name": "_liquidityFee",
      "outputs": [
        {
          "internalType": "uint256",
          "name": "",
          "type": "uint256"
        }
      ],
      "stateMutability": "view",
      "type": "function"
    },
    {
      "inputs": [],
      "name": "_maxHoldAmount",
      "outputs": [
        {
          "internalType": "uint256",
          "name": "",
          "type": "uint256"
        }
      ],
      "stateMutability": "view",
      "type": "function"
    },
    {
      "inputs": [],
      "name": "_maxTxAmount",
      "outputs": [
        {
          "internalType": "uint256",
          "name": "",
          "type": "uint256"
        }
      ],
      "stateMutability": "view",
      "type": "function"
    },
    {
      "inputs": [],
      "name": "_taxFee",
      "outputs": [
        {
          "internalType": "uint256",
          "name": "",
          "type": "uint256"
        }
      ],
      "stateMutability": "view",
      "type": "function"
    },
    {
      "inputs": [],
      "name": "owner",
      "outputs": [
        {
          "internalType": "address",
          "name": "",
          "type": "address"
        }
      ],
      "stateMutability": "view",
      "type": "function"
    },
    {
      "inputs": [],
      "name": "renounceOwnership",
      "outputs": [],
      "stateMutability": "nonpayable",
      "type": "function"
    },
    {
      "inputs": [],
      "name": "swapAndLiquifyEnabled",
      "outputs": [
        {
          "internalType": "bool",
          "name": "",
          "type": "bool"
        }
      ],
      "stateMutability": "view",
      "type": "function"
    },
    {
      "inputs": [
        {
          "internalType": "address",
          "name": "newOwner",
          "type": "address"
        }
      ],
      "name": "transferOwnership",
      "outputs": [],
      "stateMutability": "nonpayable",
      "type": "function"
    },
    {
      "inputs": [],
      "name": "uniswapV2Pair",
      "outputs": [
        {
          "internalType": "address",
          "name": "",
          "type": "address"
        }
      ],
      "stateMutability": "view",
      "type": "function"
    },
    {
      "inputs": [],
      "name": "uniswapV2Router",
      "outputs": [
        {
          "internalType": "contract IUniswapV2Router02",
          "name": "",
          "type": "address"
        }
      ],
      "stateMutability": "view",
      "type": "function"
    },
    {
      "inputs": [],
      "name": "getOwner",
      "outputs": [
        {
          "internalType": "address",
          "name": "",
          "type": "address"
        }
      ],
      "stateMutability": "view",
      "type": "function"
    },
    {
      "inputs": [],
      "name": "decimals",
      "outputs": [
        {
          "internalType": "uint8",
          "name": "",
          "type": "uint8"
        }
      ],
      "stateMutability": "view",
      "type": "function"
    },
    {
      "inputs": [],
      "name": "symbol",
      "outputs": [
        {
          "internalType": "string",
          "name": "",
          "type": "string"
        }
      ],
      "stateMutability": "view",
      "type": "function"
    },
    {
      "inputs": [],
      "name": "name",
      "outputs": [
        {
          "internalType": "string",
          "name": "",
          "type": "string"
        }
      ],
      "stateMutability": "view",
      "type": "function"
    },
    {
      "inputs": [],
      "name": "totalSupply",
      "outputs": [
        {
          "internalType": "uint256",
          "name": "",
          "type": "uint256"
        }
      ],
      "stateMutability": "view",
      "type": "function"
    },
    {
      "inputs": [],
      "name": "maxSupply",
      "outputs": [
        {
          "internalType": "uint256",
          "name": "",
          "type": "uint256"
        }
      ],
      "stateMutability": "view",
      "type": "function"
    },
    {
      "inputs": [
        {
          "internalType": "address",
          "name": "account",
          "type": "address"
        }
      ],
      "name": "balanceOf",
      "outputs": [
        {
          "internalType": "uint256",
          "name": "",
          "type": "uint256"
        }
      ],
      "stateMutability": "view",
      "type": "function"
    },
    {
      "inputs": [
        {
          "internalType": "address",
          "name": "recipient",
          "type": "address"
        },
        {
          "internalType": "uint256",
          "name": "amount",
          "type": "uint256"
        }
      ],
      "name": "transfer",
      "outputs": [
        {
          "internalType": "bool",
          "name": "",
          "type": "bool"
        }
      ],
      "stateMutability": "nonpayable",
      "type": "function"
    },
    {
      "inputs": [
        {
          "internalType": "address",
          "name": "owner",
          "type": "address"
        },
        {
          "internalType": "address",
          "name": "spender",
          "type": "address"
        }
      ],
      "name": "allowance",
      "outputs": [
        {
          "internalType": "uint256",
          "name": "",
          "type": "uint256"
        }
      ],
      "stateMutability": "view",
      "type": "function"
    },
    {
      "inputs": [
        {
          "internalType": "address",
          "name": "spender",
          "type": "address"
        },
        {
          "internalType": "uint256",
          "name": "amount",
          "type": "uint256"
        }
      ],
      "name": "approve",
      "outputs": [
        {
          "internalType": "bool",
          "name": "",
          "type": "bool"
        }
      ],
      "stateMutability": "nonpayable",
      "type": "function"
    },
    {
      "inputs": [
        {
          "internalType": "address",
          "name": "sender",
          "type": "address"
        },
        {
          "internalType": "address",
          "name": "recipient",
          "type": "address"
        },
        {
          "internalType": "uint256",
          "name": "amount",
          "type": "uint256"
        }
      ],
      "name": "transferFrom",
      "outputs": [
        {
          "internalType": "bool",
          "name": "",
          "type": "bool"
        }
      ],
      "stateMutability": "nonpayable",
      "type": "function"
    },
    {
      "inputs": [
        {
          "internalType": "address",
          "name": "spender",
          "type": "address"
        },
        {
          "internalType": "uint256",
          "name": "addedValue",
          "type": "uint256"
        }
      ],
      "name": "increaseAllowance",
      "outputs": [
        {
          "internalType": "bool",
          "name": "",
          "type": "bool"
        }
      ],
      "stateMutability": "nonpayable",
      "type": "function"
    },
    {
      "inputs": [
        {
          "internalType": "address",
          "name": "spender",
          "type": "address"
        },
        {
          "internalType": "uint256",
          "name": "subtractedValue",
          "type": "uint256"
        }
      ],
      "name": "decreaseAllowance",
      "outputs": [
        {
          "internalType": "bool",
          "name": "",
          "type": "bool"
        }
      ],
      "stateMutability": "nonpayable",
      "type": "function"
    },
    {
      "inputs": [
        {
          "internalType": "uint256",
          "name": "amount",
          "type": "uint256"
        }
      ],
      "name": "mint",
      "outputs": [
        {
          "internalType": "bool",
          "name": "",
          "type": "bool"
        }
      ],
      "stateMutability": "nonpayable",
      "type": "function"
    },
    {
      "inputs": [
        {
          "internalType": "address",
          "name": "account",
          "type": "address"
        }
      ],
      "name": "excludeFromFee",
      "outputs": [],
      "stateMutability": "nonpayable",
      "type": "function"
    },
    {
      "inputs": [
        {
          "internalType": "address",
          "name": "account",
          "type": "address"
        }
      ],
      "name": "includeInFee",
      "outputs": [],
      "stateMutability": "nonpayable",
      "type": "function"
    },
    {
      "inputs": [
        {
          "internalType": "uint256",
          "name": "taxFee",
          "type": "uint256"
        }
      ],
      "name": "setTaxFeePercent",
      "outputs": [],
      "stateMutability": "nonpayable",
      "type": "function"
    },
    {
      "inputs": [
        {
          "internalType": "uint256",
          "name": "liquidityFee",
          "type": "uint256"
        }
      ],
      "name": "setLiquidityFeePercent",
      "outputs": [],
      "stateMutability": "nonpayable",
      "type": "function"
    },
    {
      "inputs": [
        {
          "internalType": "uint256",
          "name": "maxHoldingPercent",
          "type": "uint256"
        }
      ],
      "name": "setMaxHoldingPercent",
      "outputs": [],
      "stateMutability": "nonpayable",
      "type": "function"
    },
    {
      "inputs": [
        {
          "internalType": "uint256",
          "name": "maxTxPercent",
          "type": "uint256"
        }
      ],
      "name": "setMaxTxPercent",
      "outputs": [],
      "stateMutability": "nonpayable",
      "type": "function"
    },
    {
      "inputs": [
        {
          "internalType": "uint256",
          "name": "minTokensToAddToLiquidity",
          "type": "uint256"
        }
      ],
      "name": "setMinTokensToAddToLiquidity",
      "outputs": [],
      "stateMutability": "nonpayable",
      "type": "function"
    },
    {
      "inputs": [
        {
          "internalType": "bool",
          "name": "_enabled",
          "type": "bool"
        }
      ],
      "name": "setSwapAndLiquifyEnabled",
      "outputs": [],
      "stateMutability": "nonpayable",
      "type": "function"
    },
    {
      "inputs": [
        {
          "internalType": "address",
          "name": "newProviderAddress",
          "type": "address"
        }
      ],
      "name": "setProviderAddress",
      "outputs": [],
      "stateMutability": "nonpayable",
      "type": "function"
    }
  ],
  "bytecode": "0x60c06040526001600b60016101000a81548160ff0219169083151502179055503480156200002c57600080fd5b5060006200003f6200063760201b60201c565b9050806000806101000a81548173ffffffffffffffffffffffffffffffffffffffff021916908373ffffffffffffffffffffffffffffffffffffffff1602179055508073ffffffffffffffffffffffffffffffffffffffff16600073ffffffffffffffffffffffffffffffffffffffff167f8be0079c531659141344cd1fd0a4f28419497f9722a3daafe3b4186f6b6457e060405160405180910390a3506040518060400160405280600a81526020017f486a61656c70436f696e00000000000000000000000000000000000000000000815250600790805190602001906200012a92919062000668565b506040518060400160405280600681526020017f486a61656c700000000000000000000000000000000000000000000000000000815250600690805190602001906200017892919062000668565b506008600560006101000a81548160ff021916908360ff16021790555067016345785d8a0000600481905550600454600381905550600354600160003373ffffffffffffffffffffffffffffffffffffffff1673ffffffffffffffffffffffffffffffffffffffff1681526020019081526020016000208190555060046009819055506004600a81905550655af3107a4000600c81905550600c54600d81905550600d54600e81905550620002326200063f60201b60201c565b600f60006101000a81548173ffffffffffffffffffffffffffffffffffffffff021916908373ffffffffffffffffffffffffffffffffffffffff16021790555060007305ff2b0db69458a0750badebc4f9e13add608c7f90508073ffffffffffffffffffffffffffffffffffffffff1663c45a01556040518163ffffffff1660e01b815260040160206040518083038186803b158015620002d257600080fd5b505afa158015620002e7573d6000803e3d6000fd5b505050506040513d601f19601f820116820180604052508101906200030d91906200072f565b73ffffffffffffffffffffffffffffffffffffffff1663c9c65396308373ffffffffffffffffffffffffffffffffffffffff1663ad5c46486040518163ffffffff1660e01b815260040160206040518083038186803b1580156200037057600080fd5b505afa15801562000385573d6000803e3d6000fd5b505050506040513d601f19601f82011682018060405250810190620003ab91906200072f565b6040518363ffffffff1660e01b8152600401620003ca9291906200077d565b602060405180830381600087803b158015620003e557600080fd5b505af1158015620003fa573d6000803e3d6000fd5b505050506040513d601f19601f820116820180604052508101906200042091906200072f565b73ffffffffffffffffffffffffffffffffffffffff1660a08173ffffffffffffffffffffffffffffffffffffffff1660601b815250508073ffffffffffffffffffffffffffffffffffffffff1660808173ffffffffffffffffffffffffffffffffffffffff1660601b81525050600160086000620004a36200063f60201b60201c565b73ffffffffffffffffffffffffffffffffffffffff1673ffffffffffffffffffffffffffffffffffffffff16815260200190815260200160002060006101000a81548160ff0219169083151502179055506001600860003073ffffffffffffffffffffffffffffffffffffffff1673ffffffffffffffffffffffffffffffffffffffff16815260200190815260200160002060006101000a81548160ff021916908315150217905550600160086000600f60009054906101000a900473ffffffffffffffffffffffffffffffffffffffff1673ffffffffffffffffffffffffffffffffffffffff1673ffffffffffffffffffffffffffffffffffffffff16815260200190815260200160002060006101000a81548160ff0219169083151502179055503373ffffffffffffffffffffffffffffffffffffffff16600073ffffffffffffffffffffffffffffffffffffffff167fddf252ad1be2c89b69c2b068fc378daa952ba7f163c4a11628f55a4df523b3ef600354604051620006289190620007aa565b60405180910390a35062000884565b600033905090565b60008060009054906101000a900473ffffffffffffffffffffffffffffffffffffffff16905090565b828054620006769062000805565b90600052602060002090601f0160209004810192826200069a5760008555620006e6565b82601f10620006b557805160ff1916838001178555620006e6565b82800160010185558215620006e6579182015b82811115620006e5578251825591602001919060010190620006c8565b5b509050620006f59190620006f9565b5090565b5b8082111562000714576000816000905550600101620006fa565b5090565b60008151905062000729816200086a565b92915050565b6000602082840312156200074257600080fd5b6000620007528482850162000718565b91505092915050565b6200076681620007c7565b82525050565b6200077781620007fb565b82525050565b60006040820190506200079460008301856200075b565b620007a360208301846200075b565b9392505050565b6000602082019050620007c160008301846200076c565b92915050565b6000620007d482620007db565b9050919050565b600073ffffffffffffffffffffffffffffffffffffffff82169050919050565b6000819050919050565b600060028204905060018216806200081e57607f821691505b602082108114156200083557620008346200083b565b5b50919050565b7f4e487b7100000000000000000000000000000000000000000000000000000000600052602260045260246000fd5b6200087581620007c7565b81146200088157600080fd5b50565b60805160601c60a05160601c613357620008da60003960008181610adf01526119cf01526000818161082b015281816122ae015281816123c4015281816123eb0152818161248701526124ae01526133576000f3fe608060405234801561001057600080fd5b50600436106101fa5760003560e01c8063715018a61161011a578063a457c2d7116100ad578063d5abeb011161007c578063d5abeb01146105a3578063dc5d7fc5146105c1578063dd62ed3e146105dd578063ea2f0b371461060d578063f2fde38b14610629576101fa565b8063a457c2d71461050b578063a9059cbb1461053b578063c49b9a801461056b578063d543dbeb14610587576101fa565b80638ee88c53116100e95780638ee88c531461048557806395d89b41146104a1578063a0712d68146104bf578063a23628d5146104ef576101fa565b8063715018a6146104215780637d1db4a51461042b578063893d20e8146104495780638da5cb5b14610467576101fa565b8063313ce5671161019257806349bd5a5e1161016157806349bd5a5e146103975780634a74bb02146103b55780636bc87c3a146103d357806370a08231146103f1576101fa565b8063313ce5671461030f578063395093511461032d5780633b124fe71461035d578063437823ec1461037b576101fa565b80631694505e116101ce5780631694505e1461028557806318160ddd146102a35780631fc9efa1146102c157806323b872dd146102df576101fa565b806216bd6c146101ff578063061c82d01461021b57806306fdde0314610237578063095ea7b314610255575b600080fd5b6102196004803603810190610214919061271c565b610645565b005b6102356004803603810190610230919061271c565b6106f3565b005b61023f610779565b60405161024c9190612d4e565b60405180910390f35b61026f600480360381019061026a91906126b7565b61080b565b60405161027c9190612d18565b60405180910390f35b61028d610829565b60405161029a9190612d33565b60405180910390f35b6102ab61084d565b6040516102b89190612ed0565b60405180910390f35b6102c9610857565b6040516102d69190612ed0565b60405180910390f35b6102f960048036038101906102f49190612668565b61085d565b6040516103069190612d18565b60405180910390f35b610317610936565b6040516103249190612f7c565b60405180910390f35b610347600480360381019061034291906126b7565b61094d565b6040516103549190612d18565b60405180910390f35b610365610a00565b6040516103729190612ed0565b60405180910390f35b610395600480360381019061039091906125da565b610a06565b005b61039f610add565b6040516103ac9190612c9c565b60405180910390f35b6103bd610b01565b6040516103ca9190612d18565b60405180910390f35b6103db610b14565b6040516103e89190612ed0565b60405180910390f35b61040b600480360381019061040691906125da565b610b1a565b6040516104189190612ed0565b60405180910390f35b610429610b63565b005b610433610c9d565b6040516104409190612ed0565b60405180910390f35b610451610ca3565b60405161045e9190612c9c565b60405180910390f35b61046f610cb2565b60405161047c9190612c9c565b60405180910390f35b61049f600480360381019061049a919061271c565b610cdb565b005b6104a9610d61565b6040516104b69190612d4e565b60405180910390f35b6104d960048036038101906104d4919061271c565b610df3565b6040516104e69190612d18565b60405180910390f35b6105096004803603810190610504919061271c565b610e8b565b005b610525600480360381019061052091906126b7565b610f11565b6040516105329190612d18565b60405180910390f35b610555600480360381019061055091906126b7565b610fde565b6040516105629190612d18565b60405180910390f35b610585600480360381019061058091906126f3565b610ffc565b005b6105a1600480360381019061059c919061271c565b6110cc565b005b6105ab61117a565b6040516105b89190612ed0565b60405180910390f35b6105db60048036038101906105d691906125da565b611184565b005b6105f760048036038101906105f2919061262c565b611278565b6040516106049190612ed0565b60405180910390f35b610627600480360381019061062291906125da565b6112ff565b005b610643600480360381019061063e91906125da565b6113d6565b005b61064d61157f565b73ffffffffffffffffffffffffffffffffffffffff1661066b610cb2565b73ffffffffffffffffffffffffffffffffffffffff16146106c1576040517f08c379a00000000000000000000000000000000000000000000000000000000081526004016106b890612e30565b60405180910390fd5b6106ea6127106106dc8360035461158790919063ffffffff16565b61159d90919063ffffffff16565b600c8190555050565b6106fb61157f565b73ffffffffffffffffffffffffffffffffffffffff16610719610cb2565b73ffffffffffffffffffffffffffffffffffffffff161461076f576040517f08c379a000000000000000000000000000000000000000000000000000000000815260040161076690612e30565b60405180910390fd5b8060098190555050565b606060078054610788906131bf565b80601f01602080910402602001604051908101604052809291908181526020018280546107b4906131bf565b80156108015780601f106107d657610100808354040283529160200191610801565b820191906000526020600020905b8154815290600101906020018083116107e457829003601f168201915b5050505050905090565b600061081f61081861157f565b84846115b3565b6001905092915050565b7f000000000000000000000000000000000000000000000000000000000000000081565b6000600354905090565b600c5481565b600061086a84848461177e565b61092b8461087661157f565b610926856040518060600160405280602881526020016132d560289139600260008b73ffffffffffffffffffffffffffffffffffffffff1673ffffffffffffffffffffffffffffffffffffffff16815260200190815260200160002060006108dc61157f565b73ffffffffffffffffffffffffffffffffffffffff1673ffffffffffffffffffffffffffffffffffffffff16815260200190815260200160002054611be29092919063ffffffff16565b6115b3565b600190509392505050565b6000600560009054906101000a900460ff16905090565b60006109f661095a61157f565b846109f1856002600061096b61157f565b73ffffffffffffffffffffffffffffffffffffffff1673ffffffffffffffffffffffffffffffffffffffff16815260200190815260200160002060008973ffffffffffffffffffffffffffffffffffffffff1673ffffffffffffffffffffffffffffffffffffffff16815260200190815260200160002054611c3790919063ffffffff16565b6115b3565b6001905092915050565b60095481565b610a0e61157f565b73ffffffffffffffffffffffffffffffffffffffff16610a2c610cb2565b73ffffffffffffffffffffffffffffffffffffffff1614610a82576040517f08c379a0000000000000000000000000000000000000000000000000000000008152600401610a7990612e30565b60405180910390fd5b6001600860008373ffffffffffffffffffffffffffffffffffffffff1673ffffffffffffffffffffffffffffffffffffffff16815260200190815260200160002060006101000a81548160ff02191690831515021790555050565b7f000000000000000000000000000000000000000000000000000000000000000081565b600b60019054906101000a900460ff1681565b600a5481565b6000600160008373ffffffffffffffffffffffffffffffffffffffff1673ffffffffffffffffffffffffffffffffffffffff168152602001908152602001600020549050919050565b610b6b61157f565b73ffffffffffffffffffffffffffffffffffffffff16610b89610cb2565b73ffffffffffffffffffffffffffffffffffffffff1614610bdf576040517f08c379a0000000000000000000000000000000000000000000000000000000008152600401610bd690612e30565b60405180910390fd5b600073ffffffffffffffffffffffffffffffffffffffff1660008054906101000a900473ffffffffffffffffffffffffffffffffffffffff1673ffffffffffffffffffffffffffffffffffffffff167f8be0079c531659141344cd1fd0a4f28419497f9722a3daafe3b4186f6b6457e060405160405180910390a360008060006101000a81548173ffffffffffffffffffffffffffffffffffffffff021916908373ffffffffffffffffffffffffffffffffffffffff160217905550565b600d5481565b6000610cad610cb2565b905090565b60008060009054906101000a900473ffffffffffffffffffffffffffffffffffffffff16905090565b610ce361157f565b73ffffffffffffffffffffffffffffffffffffffff16610d01610cb2565b73ffffffffffffffffffffffffffffffffffffffff1614610d57576040517f08c379a0000000000000000000000000000000000000000000000000000000008152600401610d4e90612e30565b60405180910390fd5b80600a8190555050565b606060068054610d70906131bf565b80601f0160208091040260200160405190810160405280929190818152602001828054610d9c906131bf565b8015610de95780601f10610dbe57610100808354040283529160200191610de9565b820191906000526020600020905b815481529060010190602001808311610dcc57829003601f168201915b5050505050905090565b6000610dfd61157f565b73ffffffffffffffffffffffffffffffffffffffff16610e1b610cb2565b73ffffffffffffffffffffffffffffffffffffffff1614610e71576040517f08c379a0000000000000000000000000000000000000000000000000000000008152600401610e6890612e30565b60405180910390fd5b610e82610e7c61157f565b83611c4d565b60019050919050565b610e9361157f565b73ffffffffffffffffffffffffffffffffffffffff16610eb1610cb2565b73ffffffffffffffffffffffffffffffffffffffff1614610f07576040517f08c379a0000000000000000000000000000000000000000000000000000000008152600401610efe90612e30565b60405180910390fd5b80600e8190555050565b6000610fd4610f1e61157f565b84610fcf856040518060600160405280602581526020016132fd6025913960026000610f4861157f565b73ffffffffffffffffffffffffffffffffffffffff1673ffffffffffffffffffffffffffffffffffffffff16815260200190815260200160002060008a73ffffffffffffffffffffffffffffffffffffffff1673ffffffffffffffffffffffffffffffffffffffff16815260200190815260200160002054611be29092919063ffffffff16565b6115b3565b6001905092915050565b6000610ff2610feb61157f565b848461177e565b6001905092915050565b61100461157f565b73ffffffffffffffffffffffffffffffffffffffff16611022610cb2565b73ffffffffffffffffffffffffffffffffffffffff1614611078576040517f08c379a000000000000000000000000000000000000000000000000000000000815260040161106f90612e30565b60405180910390fd5b80600b60016101000a81548160ff0219169083151502179055507f53726dfcaf90650aa7eb35524f4d3220f07413c8d6cb404cc8c18bf5591bc159816040516110c19190612d18565b60405180910390a150565b6110d461157f565b73ffffffffffffffffffffffffffffffffffffffff166110f2610cb2565b73ffffffffffffffffffffffffffffffffffffffff1614611148576040517f08c379a000000000000000000000000000000000000000000000000000000000815260040161113f90612e30565b60405180910390fd5b6111716127106111638360035461158790919063ffffffff16565b61159d90919063ffffffff16565b600d8190555050565b6000600454905090565b61118c61157f565b73ffffffffffffffffffffffffffffffffffffffff166111aa610cb2565b73ffffffffffffffffffffffffffffffffffffffff1614611200576040517f08c379a00000000000000000000000000000000000000000000000000000000081526004016111f790612e30565b60405180910390fd5b61122b600f60009054906101000a900473ffffffffffffffffffffffffffffffffffffffff166112ff565b61123481610a06565b80600f60006101000a81548173ffffffffffffffffffffffffffffffffffffffff021916908373ffffffffffffffffffffffffffffffffffffffff16021790555050565b6000600260008473ffffffffffffffffffffffffffffffffffffffff1673ffffffffffffffffffffffffffffffffffffffff16815260200190815260200160002060008373ffffffffffffffffffffffffffffffffffffffff1673ffffffffffffffffffffffffffffffffffffffff16815260200190815260200160002054905092915050565b61130761157f565b73ffffffffffffffffffffffffffffffffffffffff16611325610cb2565b73ffffffffffffffffffffffffffffffffffffffff161461137b576040517f08c379a000000000000000000000000000000000000000000000000000000000815260040161137290612e30565b60405180910390fd5b6000600860008373ffffffffffffffffffffffffffffffffffffffff1673ffffffffffffffffffffffffffffffffffffffff16815260200190815260200160002060006101000a81548160ff02191690831515021790555050565b6113de61157f565b73ffffffffffffffffffffffffffffffffffffffff166113fc610cb2565b73ffffffffffffffffffffffffffffffffffffffff1614611452576040517f08c379a000000000000000000000000000000000000000000000000000000000815260040161144990612e30565b60405180910390fd5b600073ffffffffffffffffffffffffffffffffffffffff168173ffffffffffffffffffffffffffffffffffffffff1614156114c2576040517f08c379a00000000000000000000000000000000000000000000000000000000081526004016114b990612db0565b60405180910390fd5b8073ffffffffffffffffffffffffffffffffffffffff1660008054906101000a900473ffffffffffffffffffffffffffffffffffffffff1673ffffffffffffffffffffffffffffffffffffffff167f8be0079c531659141344cd1fd0a4f28419497f9722a3daafe3b4186f6b6457e060405160405180910390a3806000806101000a81548173ffffffffffffffffffffffffffffffffffffffff021916908373ffffffffffffffffffffffffffffffffffffffff16021790555050565b600033905090565b600081836115959190613073565b905092915050565b600081836115ab9190613042565b905092915050565b600073ffffffffffffffffffffffffffffffffffffffff168373ffffffffffffffffffffffffffffffffffffffff161415611623576040517f08c379a000000000000000000000000000000000000000000000000000000000815260040161161a90612d90565b60405180910390fd5b600073ffffffffffffffffffffffffffffffffffffffff168273ffffffffffffffffffffffffffffffffffffffff161415611693576040517f08c379a000000000000000000000000000000000000000000000000000000000815260040161168a90612eb0565b60405180910390fd5b80600260008573ffffffffffffffffffffffffffffffffffffffff1673ffffffffffffffffffffffffffffffffffffffff16815260200190815260200160002060008473ffffffffffffffffffffffffffffffffffffffff1673ffffffffffffffffffffffffffffffffffffffff168152602001908152602001600020819055508173ffffffffffffffffffffffffffffffffffffffff168373ffffffffffffffffffffffffffffffffffffffff167f8c5be1e5ebec7d5bd14f71427d1e84f3dd0314c0f7b2291e5b200ac8c7c3b925836040516117719190612ed0565b60405180910390a3505050565b611789838383611dd7565b60006117b360646117a5600a548561158790919063ffffffff16565b61159d90919063ffffffff16565b90506118298160016000600f60009054906101000a900473ffffffffffffffffffffffffffffffffffffffff1673ffffffffffffffffffffffffffffffffffffffff1673ffffffffffffffffffffffffffffffffffffffff16815260200190815260200160002054611c3790919063ffffffff16565b60016000600f60009054906101000a900473ffffffffffffffffffffffffffffffffffffffff1673ffffffffffffffffffffffffffffffffffffffff1673ffffffffffffffffffffffffffffffffffffffff1681526020019081526020016000208190555060006118b860646118aa600a548661158790919063ffffffff16565b61159d90919063ffffffff16565b905061190c81600160003073ffffffffffffffffffffffffffffffffffffffff1673ffffffffffffffffffffffffffffffffffffffff16815260200190815260200160002054611c3790919063ffffffff16565b600160003073ffffffffffffffffffffffffffffffffffffffff1673ffffffffffffffffffffffffffffffffffffffff168152602001908152602001600020819055506000600160003073ffffffffffffffffffffffffffffffffffffffff1673ffffffffffffffffffffffffffffffffffffffff168152602001908152602001600020549050600d5481106119a257600d5490505b6000600e5482101590508080156119c65750600b60009054906101000a900460ff16155b8015611a1e57507f000000000000000000000000000000000000000000000000000000000000000073ffffffffffffffffffffffffffffffffffffffff168773ffffffffffffffffffffffffffffffffffffffff1614155b8015611a365750600b60019054906101000a900460ff165b15611a4a57600e549150611a49826120d7565b5b611a9c85600160008a73ffffffffffffffffffffffffffffffffffffffff1673ffffffffffffffffffffffffffffffffffffffff168152602001908152602001600020546121ad90919063ffffffff16565b600160008973ffffffffffffffffffffffffffffffffffffffff1673ffffffffffffffffffffffffffffffffffffffff16815260200190815260200160002081905550611b3185600160008973ffffffffffffffffffffffffffffffffffffffff1673ffffffffffffffffffffffffffffffffffffffff16815260200190815260200160002054611c3790919063ffffffff16565b600160008873ffffffffffffffffffffffffffffffffffffffff1673ffffffffffffffffffffffffffffffffffffffff168152602001908152602001600020819055508573ffffffffffffffffffffffffffffffffffffffff168773ffffffffffffffffffffffffffffffffffffffff167fddf252ad1be2c89b69c2b068fc378daa952ba7f163c4a11628f55a4df523b3ef87604051611bd19190612ed0565b60405180910390a350505050505050565b6000838311158290611c2a576040517f08c379a0000000000000000000000000000000000000000000000000000000008152600401611c219190612d4e565b60405180910390fd5b5082840390509392505050565b60008183611c459190612fec565b905092915050565b600073ffffffffffffffffffffffffffffffffffffffff168273ffffffffffffffffffffffffffffffffffffffff161415611cbd576040517f08c379a0000000000000000000000000000000000000000000000000000000008152600401611cb490612e10565b60405180910390fd5b611cd281600354611c3790919063ffffffff16565b600381905550611d2a81600160008573ffffffffffffffffffffffffffffffffffffffff1673ffffffffffffffffffffffffffffffffffffffff16815260200190815260200160002054611c3790919063ffffffff16565b600160008473ffffffffffffffffffffffffffffffffffffffff1673ffffffffffffffffffffffffffffffffffffffff168152602001908152602001600020819055508173ffffffffffffffffffffffffffffffffffffffff16600073ffffffffffffffffffffffffffffffffffffffff167fddf252ad1be2c89b69c2b068fc378daa952ba7f163c4a11628f55a4df523b3ef83604051611dcb9190612ed0565b60405180910390a35050565b600073ffffffffffffffffffffffffffffffffffffffff168373ffffffffffffffffffffffffffffffffffffffff161415611e47576040517f08c379a0000000000000000000000000000000000000000000000000000000008152600401611e3e90612d70565b60405180910390fd5b600073ffffffffffffffffffffffffffffffffffffffff168273ffffffffffffffffffffffffffffffffffffffff161415611eb7576040517f08c379a0000000000000000000000000000000000000000000000000000000008152600401611eae90612e70565b60405180910390fd5b60008111611efa576040517f08c379a0000000000000000000000000000000000000000000000000000000008152600401611ef190612e50565b60405180910390fd5b80600160008573ffffffffffffffffffffffffffffffffffffffff1673ffffffffffffffffffffffffffffffffffffffff1681526020019081526020016000205411611f7b576040517f08c379a0000000000000000000000000000000000000000000000000000000008152600401611f7290612df0565b60405180910390fd5b600c54611fd082600160008673ffffffffffffffffffffffffffffffffffffffff1673ffffffffffffffffffffffffffffffffffffffff16815260200190815260200160002054611c3790919063ffffffff16565b1115612011576040517f08c379a000000000000000000000000000000000000000000000000000000000815260040161200890612e90565b60405180910390fd5b612019610cb2565b73ffffffffffffffffffffffffffffffffffffffff168373ffffffffffffffffffffffffffffffffffffffff16141580156120875750612057610cb2565b73ffffffffffffffffffffffffffffffffffffffff168273ffffffffffffffffffffffffffffffffffffffff1614155b156120d257600d548111156120d1576040517f08c379a00000000000000000000000000000000000000000000000000000000081526004016120c890612dd0565b60405180910390fd5b5b505050565b6001600b60006101000a81548160ff021916908315150217905550600061210860028361159d90919063ffffffff16565b9050600061211f82846121ad90919063ffffffff16565b9050600047905061212f836121c3565b600061214482476121ad90919063ffffffff16565b90506121508382612481565b7f17bbfb9a6069321b6ded73bd96327c9e6b7212a5cd51ff219cd61370acafb56184828560405161218393929190612f45565b60405180910390a1505050506000600b60006101000a81548160ff02191690831515021790555050565b600081836121bb91906130cd565b905092915050565b6000600267ffffffffffffffff811115612206577f4e487b7100000000000000000000000000000000000000000000000000000000600052604160045260246000fd5b6040519080825280602002602001820160405280156122345781602001602082028036833780820191505090505b5090503081600081518110612272577f4e487b7100000000000000000000000000000000000000000000000000000000600052603260045260246000fd5b602002602001019073ffffffffffffffffffffffffffffffffffffffff16908173ffffffffffffffffffffffffffffffffffffffff16815250507f000000000000000000000000000000000000000000000000000000000000000073ffffffffffffffffffffffffffffffffffffffff1663ad5c46486040518163ffffffff1660e01b815260040160206040518083038186803b15801561231257600080fd5b505afa158015612326573d6000803e3d6000fd5b505050506040513d601f19601f8201168201806040525081019061234a9190612603565b81600181518110612384577f4e487b7100000000000000000000000000000000000000000000000000000000600052603260045260246000fd5b602002602001019073ffffffffffffffffffffffffffffffffffffffff16908173ffffffffffffffffffffffffffffffffffffffff16815250506123e9307f0000000000000000000000000000000000000000000000000000000000000000846115b3565b7f000000000000000000000000000000000000000000000000000000000000000073ffffffffffffffffffffffffffffffffffffffff1663791ac9478360008430426040518663ffffffff1660e01b815260040161244b959493929190612eeb565b600060405180830381600087803b15801561246557600080fd5b505af1158015612479573d6000803e3d6000fd5b505050505050565b6124ac307f0000000000000000000000000000000000000000000000000000000000000000846115b3565b7f000000000000000000000000000000000000000000000000000000000000000073ffffffffffffffffffffffffffffffffffffffff1663f305d7198230856000806124f6610cb2565b426040518863ffffffff1660e01b815260040161251896959493929190612cb7565b6060604051808303818588803b15801561253157600080fd5b505af1158015612545573d6000803e3d6000fd5b50505050506040513d601f19601f8201168201806040525081019061256a9190612745565b5050505050565b6000813590506125808161328f565b92915050565b6000815190506125958161328f565b92915050565b6000813590506125aa816132a6565b92915050565b6000813590506125bf816132bd565b92915050565b6000815190506125d4816132bd565b92915050565b6000602082840312156125ec57600080fd5b60006125fa84828501612571565b91505092915050565b60006020828403121561261557600080fd5b600061262384828501612586565b91505092915050565b6000806040838503121561263f57600080fd5b600061264d85828601612571565b925050602061265e85828601612571565b9150509250929050565b60008060006060848603121561267d57600080fd5b600061268b86828701612571565b935050602061269c86828701612571565b92505060406126ad868287016125b0565b9150509250925092565b600080604083850312156126ca57600080fd5b60006126d885828601612571565b92505060206126e9858286016125b0565b9150509250929050565b60006020828403121561270557600080fd5b60006127138482850161259b565b91505092915050565b60006020828403121561272e57600080fd5b600061273c848285016125b0565b91505092915050565b60008060006060848603121561275a57600080fd5b6000612768868287016125c5565b9350506020612779868287016125c5565b925050604061278a868287016125c5565b9150509250925092565b60006127a083836127ac565b60208301905092915050565b6127b581613101565b82525050565b6127c481613101565b82525050565b60006127d582612fa7565b6127df8185612fca565b93506127ea83612f97565b8060005b8381101561281b5781516128028882612794565b975061280d83612fbd565b9250506001810190506127ee565b5085935050505092915050565b61283181613113565b82525050565b61284081613156565b82525050565b61284f8161317a565b82525050565b600061286082612fb2565b61286a8185612fdb565b935061287a81856020860161318c565b6128838161327e565b840191505092915050565b600061289b602583612fdb565b91507f42455032303a207472616e736665722066726f6d20746865207a65726f20616460008301527f64726573730000000000000000000000000000000000000000000000000000006020830152604082019050919050565b6000612901602483612fdb565b91507f42455032303a20617070726f76652066726f6d20746865207a65726f2061646460008301527f72657373000000000000000000000000000000000000000000000000000000006020830152604082019050919050565b6000612967602683612fdb565b91507f4f776e61626c653a206e6577206f776e657220697320746865207a65726f206160008301527f64647265737300000000000000000000000000000000000000000000000000006020830152604082019050919050565b60006129cd602883612fdb565b91507f5472616e7366657220616d6f756e74206578636565647320746865206d61785460008301527f78416d6f756e742e0000000000000000000000000000000000000000000000006020830152604082019050919050565b6000612a33601f83612fdb565b91507f5472616e7366657220616d6f756e7420657863656564732062616c616e6365006000830152602082019050919050565b6000612a73601f83612fdb565b91507f42455032303a206d696e7420746f20746865207a65726f2061646472657373006000830152602082019050919050565b6000612ab3602083612fdb565b91507f4f776e61626c653a2063616c6c6572206973206e6f7420746865206f776e65726000830152602082019050919050565b6000612af3602983612fdb565b91507f5472616e7366657220616d6f756e74206d75737420626520677265617465722060008301527f7468616e207a65726f00000000000000000000000000000000000000000000006020830152604082019050919050565b6000612b59602383612fdb565b91507f42455032303a207472616e7366657220746f20746865207a65726f206164647260008301527f65737300000000000000000000000000000000000000000000000000000000006020830152604082019050919050565b6000612bbf602783612fdb565b91507f526563697069656e742062616c616e6365206578636565647320686f6c64696e60008301527f67206c696d6974000000000000000000000000000000000000000000000000006020830152604082019050919050565b6000612c25602283612fdb565b91507f42455032303a20617070726f766520746f20746865207a65726f20616464726560008301527f73730000000000000000000000000000000000000000000000000000000000006020830152604082019050919050565b612c878161313f565b82525050565b612c9681613149565b82525050565b6000602082019050612cb160008301846127bb565b92915050565b600060c082019050612ccc60008301896127bb565b612cd96020830188612c7e565b612ce66040830187612846565b612cf36060830186612846565b612d0060808301856127bb565b612d0d60a0830184612c7e565b979650505050505050565b6000602082019050612d2d6000830184612828565b92915050565b6000602082019050612d486000830184612837565b92915050565b60006020820190508181036000830152612d688184612855565b905092915050565b60006020820190508181036000830152612d898161288e565b9050919050565b60006020820190508181036000830152612da9816128f4565b9050919050565b60006020820190508181036000830152612dc98161295a565b9050919050565b60006020820190508181036000830152612de9816129c0565b9050919050565b60006020820190508181036000830152612e0981612a26565b9050919050565b60006020820190508181036000830152612e2981612a66565b9050919050565b60006020820190508181036000830152612e4981612aa6565b9050919050565b60006020820190508181036000830152612e6981612ae6565b9050919050565b60006020820190508181036000830152612e8981612b4c565b9050919050565b60006020820190508181036000830152612ea981612bb2565b9050919050565b60006020820190508181036000830152612ec981612c18565b9050919050565b6000602082019050612ee56000830184612c7e565b92915050565b600060a082019050612f006000830188612c7e565b612f0d6020830187612846565b8181036040830152612f1f81866127ca565b9050612f2e60608301856127bb565b612f3b6080830184612c7e565b9695505050505050565b6000606082019050612f5a6000830186612c7e565b612f676020830185612c7e565b612f746040830184612c7e565b949350505050565b6000602082019050612f916000830184612c8d565b92915050565b6000819050602082019050919050565b600081519050919050565b600081519050919050565b6000602082019050919050565b600082825260208201905092915050565b600082825260208201905092915050565b6000612ff78261313f565b91506130028361313f565b9250827fffffffffffffffffffffffffffffffffffffffffffffffffffffffffffffffff03821115613037576130366131f1565b5b828201905092915050565b600061304d8261313f565b91506130588361313f565b92508261306857613067613220565b5b828204905092915050565b600061307e8261313f565b91506130898361313f565b9250817fffffffffffffffffffffffffffffffffffffffffffffffffffffffffffffffff04831182151516156130c2576130c16131f1565b5b828202905092915050565b60006130d88261313f565b91506130e38361313f565b9250828210156130f6576130f56131f1565b5b828203905092915050565b600061310c8261311f565b9050919050565b60008115159050919050565b600073ffffffffffffffffffffffffffffffffffffffff82169050919050565b6000819050919050565b600060ff82169050919050565b600061316182613168565b9050919050565b60006131738261311f565b9050919050565b60006131858261313f565b9050919050565b60005b838110156131aa57808201518184015260208101905061318f565b838111156131b9576000848401525b50505050565b600060028204905060018216806131d757607f821691505b602082108114156131eb576131ea61324f565b5b50919050565b7f4e487b7100000000000000000000000000000000000000000000000000000000600052601160045260246000fd5b7f4e487b7100000000000000000000000000000000000000000000000000000000600052601260045260246000fd5b7f4e487b7100000000000000000000000000000000000000000000000000000000600052602260045260246000fd5b6000601f19601f8301169050919050565b61329881613101565b81146132a357600080fd5b50565b6132af81613113565b81146132ba57600080fd5b50565b6132c68161313f565b81146132d157600080fd5b5056fe42455032303a207472616e7366657220616d6f756e74206578636565647320616c6c6f77616e636542455032303a2064656372656173656420616c6c6f77616e63652062656c6f77207a65726fa26469706673582212202f796dd893ae7985d6ae5250015612696626dd5c2a94198366f2363da391fc9164736f6c63430008000033",
  "immutableReferences": {
    "48": [
      {
        "length": 32,
        "start": 2091
      },
      {
        "length": 32,
        "start": 8878
      },
      {
        "length": 32,
        "start": 9156
      },
      {
        "length": 32,
        "start": 9195
      },
      {
        "length": 32,
        "start": 9351
      },
      {
        "length": 32,
        "start": 9390
      }
    ],
    "50": [
      {
        "length": 32,
        "start": 2783
      },
      {
        "length": 32,
        "start": 6607
      }
    ]
  },
  "source": "// SPDX-License-Identifier: MIT\r\n\r\npragma solidity ^0.8.0;\r\n\r\nimport \"./interfaces/IBEP20.sol\";\r\nimport \"./interfaces/uniswap/IUniswapV2Factory.sol\";\r\nimport \"./interfaces/uniswap/IUniswapV2Pair.sol\";\r\nimport \"./interfaces/uniswap/IUniswapV2Router02.sol\";\r\nimport \"@openzeppelin/contracts/utils/Context.sol\";\r\nimport \"@openzeppelin/contracts/utils/math/SafeMath.sol\";\r\nimport \"@openzeppelin/contracts/access/Ownable.sol\";\r\n\r\ncontract HjaelpCoin is Context, IBEP20, Ownable {\r\n  using SafeMath for uint256;\r\n\r\n  mapping (address => uint256) private _balances;\r\n\r\n  mapping (address => mapping (address => uint256)) private _allowances;\r\n\r\n  uint256 private _totalSupply;\r\n  uint256 private _maxSupply;\r\n  uint8 private _decimals;\r\n  string private _symbol;\r\n  string private _name;\r\n\r\n  mapping (address => bool) private _isExcludedFromFee;\r\n  uint256 public _taxFee;\r\n  uint256 public _liquidityFee;\r\n\r\n  IUniswapV2Router02 public immutable uniswapV2Router;\r\n  address public immutable uniswapV2Pair;\r\n  \r\n  bool inSwapAndLiquify;\r\n  bool public swapAndLiquifyEnabled = true;\r\n  \r\n  uint256 public _maxHoldAmount;\r\n  uint256 public _maxTxAmount;\r\n  uint256 private _minTokensToAddToLiquidity;\r\n\r\n  address private providerAddress;\r\n\r\n  event SwapAndLiquifyEnabledUpdated(bool enabled);\r\n  event SwapAndLiquify(\r\n    uint256 tokensSwapped,\r\n    uint256 ethReceived,\r\n    uint256 tokensIntoLiqudity\r\n  );\r\n  \r\n  modifier lockTheSwap {\r\n    inSwapAndLiquify = true;\r\n    _;\r\n    inSwapAndLiquify = false;\r\n  }\r\n\r\n  constructor() {\r\n    _name = \"HjaelpCoin\";\r\n    _symbol = \"Hjaelp\";\r\n    _decimals = 8;\r\n    _maxSupply = 1000000000 * (10 ** 8);\r\n    _totalSupply = _maxSupply;\r\n    _balances[msg.sender] = _totalSupply;\r\n\r\n    _taxFee = 4;\r\n    _liquidityFee = 4;\r\n    _maxHoldAmount = 1000000 * (10 ** 8);\r\n    _maxTxAmount = _maxHoldAmount;\r\n    _minTokensToAddToLiquidity = _maxTxAmount;\r\n\r\n    providerAddress = owner();\r\n\r\n    IUniswapV2Router02 _uniswapV2Router = IUniswapV2Router02(0x05fF2B0DB69458A0750badebc4f9e13aDd608C7F);\r\n    // Create a uniswap pair for this new token\r\n    uniswapV2Pair = IUniswapV2Factory(_uniswapV2Router.factory())\r\n      .createPair(address(this), _uniswapV2Router.WETH());\r\n\r\n    // Set the rest of the contract variables\r\n    uniswapV2Router = _uniswapV2Router;\r\n    \r\n    // Exclude owner and this contract from fee\r\n    _isExcludedFromFee[owner()] = true;\r\n    _isExcludedFromFee[address(this)] = true;\r\n    _isExcludedFromFee[providerAddress] = true;\r\n\r\n    emit Transfer(address(0), msg.sender, _totalSupply);\r\n  }\r\n\r\n  /**\r\n   * @dev Returns the bep token owner.\r\n   */\r\n  function getOwner() external view override returns (address) {\r\n    return owner();\r\n  }\r\n\r\n  /**\r\n   * @dev Returns the token decimals.\r\n   */\r\n  function decimals() external view override returns (uint8) {\r\n    return _decimals;\r\n  }\r\n\r\n  /**\r\n   * @dev Returns the token symbol.\r\n   */\r\n  function symbol() external view override returns (string memory) {\r\n    return _symbol;\r\n  }\r\n\r\n  /**\r\n  * @dev Returns the token name.\r\n  */\r\n  function name() external view override returns (string memory) {\r\n    return _name;\r\n  }\r\n\r\n  /**\r\n   * @dev See {BEP20-totalSupply}.\r\n   */\r\n  function totalSupply() external view override returns (uint256) {\r\n    return _totalSupply;\r\n  }\r\n\r\n  /**\r\n   * @dev Maximum Supply of token.\r\n   */\r\n  function maxSupply() external view returns (uint256) {\r\n    return _maxSupply;\r\n  }\r\n\r\n  /**\r\n   * @dev See {BEP20-balanceOf}.\r\n   */\r\n  function balanceOf(address account) external view override returns (uint256) {\r\n    return _balances[account];\r\n  }\r\n\r\n  /**\r\n   * @dev See {BEP20-transfer}.\r\n   *\r\n   * Requirements:\r\n   *\r\n   * - `recipient` cannot be the zero address.\r\n   * - the caller must have a balance of at least `amount`.\r\n   */\r\n  function transfer(address recipient, uint256 amount) external override returns (bool) {\r\n    _transfer(_msgSender(), recipient, amount);\r\n    return true;\r\n  }\r\n\r\n  /**\r\n   * @dev See {BEP20-allowance}.\r\n   */\r\n  function allowance(address owner, address spender) external view override returns (uint256) {\r\n    return _allowances[owner][spender];\r\n  }\r\n\r\n  /**\r\n   * @dev See {BEP20-approve}.\r\n   *\r\n   * Requirements:\r\n   *\r\n   * - `spender` cannot be the zero address.\r\n   */\r\n  function approve(address spender, uint256 amount) external override returns (bool) {\r\n    _approve(_msgSender(), spender, amount);\r\n    return true;\r\n  }\r\n\r\n  /**\r\n   * @dev See {BEP20-transferFrom}.\r\n   *\r\n   * Emits an {Approval} event indicating the updated allowance. This is not\r\n   * required by the EIP. See the note at the beginning of {BEP20};\r\n   *\r\n   * Requirements:\r\n   * - `sender` and `recipient` cannot be the zero address.\r\n   * - `sender` must have a balance of at least `amount`.\r\n   * - the caller must have allowance for `sender`'s tokens of at least\r\n   * `amount`.\r\n   */\r\n  function transferFrom(address sender, address recipient, uint256 amount) external override returns (bool) {\r\n    _transfer(sender, recipient, amount);\r\n    _approve(sender, _msgSender(), _allowances[sender][_msgSender()].sub(amount, \"BEP20: transfer amount exceeds allowance\"));\r\n    return true;\r\n  }\r\n\r\n  /**\r\n   * @dev Atomically increases the allowance granted to `spender` by the caller.\r\n   *\r\n   * This is an alternative to {approve} that can be used as a mitigation for\r\n   * problems described in {BEP20-approve}.\r\n   *\r\n   * Emits an {Approval} event indicating the updated allowance.\r\n   *\r\n   * Requirements:\r\n   *\r\n   * - `spender` cannot be the zero address.\r\n   */\r\n  function increaseAllowance(address spender, uint256 addedValue) public returns (bool) {\r\n    _approve(_msgSender(), spender, _allowances[_msgSender()][spender].add(addedValue));\r\n    return true;\r\n  }\r\n\r\n  /**\r\n   * @dev Atomically decreases the allowance granted to `spender` by the caller.\r\n   *\r\n   * This is an alternative to {approve} that can be used as a mitigation for\r\n   * problems described in {BEP20-approve}.\r\n   *\r\n   * Emits an {Approval} event indicating the updated allowance.\r\n   *\r\n   * Requirements:\r\n   *\r\n   * - `spender` cannot be the zero address.\r\n   * - `spender` must have allowance for the caller of at least\r\n   * `subtractedValue`.\r\n   */\r\n  function decreaseAllowance(address spender, uint256 subtractedValue) public returns (bool) {\r\n    _approve(_msgSender(), spender, _allowances[_msgSender()][spender].sub(subtractedValue, \"BEP20: decreased allowance below zero\"));\r\n    return true;\r\n  }\r\n\r\n  /**\r\n   * @dev Creates `amount` tokens and assigns them to `msg.sender`, increasing\r\n   * the total supply.\r\n   *\r\n   * Requirements\r\n   *\r\n   * - `msg.sender` must be the token owner\r\n   */\r\n  function mint(uint256 amount) public onlyOwner returns (bool) {\r\n    _mint(_msgSender(), amount);\r\n    return true;\r\n  }\r\n\r\n  /** @dev Creates `amount` tokens and assigns them to `account`, increasing\r\n   * the total supply.\r\n   *\r\n   * Emits a {Transfer} event with `from` set to the zero address.\r\n   *\r\n   * Requirements\r\n   *\r\n   * - `to` cannot be the zero address.\r\n   */\r\n  function _mint(address account, uint256 amount) internal {\r\n    require(account != address(0), \"BEP20: mint to the zero address\");\r\n\r\n    _totalSupply = _totalSupply.add(amount);\r\n    _balances[account] = _balances[account].add(amount);\r\n    emit Transfer(address(0), account, amount);\r\n  }\r\n\r\n  /**\r\n   * @dev Destroys `amount` tokens from `account`, reducing the\r\n   * total supply.\r\n   *\r\n   * Emits a {Transfer} event with `to` set to the zero address.\r\n   *\r\n   * Requirements\r\n   *\r\n   * - `account` cannot be the zero address.\r\n   * - `account` must have at least `amount` tokens.\r\n   */\r\n  function _burn(address account, uint256 amount) internal {\r\n    require(account != address(0), \"BEP20: burn from the zero address\");\r\n\r\n    _balances[account] = _balances[account].sub(amount, \"BEP20: burn amount exceeds balance\");\r\n    _totalSupply = _totalSupply.sub(amount);\r\n    emit Transfer(account, address(0), amount);\r\n  }\r\n\r\n  /**\r\n   * @dev Sets `amount` as the allowance of `spender` over the `owner`s tokens.\r\n   *\r\n   * This is internal function is equivalent to `approve`, and can be used to\r\n   * e.g. set automatic allowances for certain subsystems, etc.\r\n   *\r\n   * Emits an {Approval} event.\r\n   *\r\n   * Requirements:\r\n   *\r\n   * - `owner` cannot be the zero address.\r\n   * - `spender` cannot be the zero address.\r\n   */\r\n  function _approve(address owner, address spender, uint256 amount) internal {\r\n    require(owner != address(0), \"BEP20: approve from the zero address\");\r\n    require(spender != address(0), \"BEP20: approve to the zero address\");\r\n\r\n    _allowances[owner][spender] = amount;\r\n    emit Approval(owner, spender, amount);\r\n  }\r\n\r\n  /**\r\n   * @dev Destroys `amount` tokens from `account`.`amount` is then deducted\r\n   * from the caller's allowance.\r\n   *\r\n   * See {_burn} and {_approve}.\r\n   */\r\n  function _burnFrom(address account, uint256 amount) internal {\r\n    _burn(account, amount);\r\n    _approve(account, _msgSender(), _allowances[account][_msgSender()].sub(amount, \"BEP20: burn amount exceeds allowance\"));\r\n  }\r\n\r\n  function excludeFromFee(address account) public onlyOwner {\r\n    _isExcludedFromFee[account] = true;\r\n  }\r\n  \r\n  function includeInFee(address account) public onlyOwner {\r\n    _isExcludedFromFee[account] = false;\r\n  }\r\n  \r\n  function setTaxFeePercent(uint256 taxFee) external onlyOwner {\r\n    _taxFee = taxFee;\r\n  }\r\n  \r\n  function setLiquidityFeePercent(uint256 liquidityFee) external onlyOwner {\r\n    _liquidityFee = liquidityFee;\r\n  }\r\n\r\n  // unit of 0.01%\r\n  function setMaxHoldingPercent(uint256 maxHoldingPercent) external onlyOwner {\r\n    _maxHoldAmount = _totalSupply.mul(maxHoldingPercent).div(10000);\r\n  }\r\n\r\n  // unit of 0.01%\r\n  function setMaxTxPercent(uint256 maxTxPercent) external onlyOwner {\r\n    _maxTxAmount = _totalSupply.mul(maxTxPercent).div(10000);\r\n  }\r\n  \r\n  function setMinTokensToAddToLiquidity(uint256 minTokensToAddToLiquidity) external onlyOwner {\r\n    _minTokensToAddToLiquidity = minTokensToAddToLiquidity;\r\n  }\r\n\r\n  function setSwapAndLiquifyEnabled(bool _enabled) public onlyOwner {\r\n    swapAndLiquifyEnabled = _enabled;\r\n    emit SwapAndLiquifyEnabledUpdated(_enabled);\r\n  }\r\n\r\n  function setProviderAddress(address newProviderAddress) external onlyOwner {\r\n    // Remove the current provider from Tax Exclusion List.\r\n    includeInFee(providerAddress);\r\n\r\n    // Remove the current provider from Tax Exclusion List.\r\n    excludeFromFee(newProviderAddress);\r\n    \r\n    providerAddress = newProviderAddress;\r\n  }\r\n\r\n  /**\r\n   * @dev Moves tokens `amount` from `sender` to `recipient`.\r\n   *\r\n   * This is internal function is equivalent to {transfer}, and can be used to\r\n   * e.g. implement automatic token fees, slashing mechanisms, etc.\r\n   *\r\n   * Emits a {Transfer} event.\r\n   *\r\n   * Requirements:\r\n   *\r\n   * - `sender` cannot be the zero address.\r\n   * - `recipient` cannot be the zero address.\r\n   * - `sender` must have a balance of at least `amount`.\r\n   */\r\n  function _transfer(address sender, address recipient, uint256 amount) internal {\r\n    checkTxValid(sender, recipient, amount);\r\n\r\n    // Take tax of transaction and transfer to the provider wallet.\r\n    uint256 taxFeeAmount = amount.mul(_liquidityFee).div(100);\r\n    _balances[providerAddress] = _balances[providerAddress].add(taxFeeAmount);\r\n    \r\n    // Take tax of transaction and add to liquidity.\r\n    uint256 liquidityFeeAmount = amount.mul(_liquidityFee).div(100);\r\n    _balances[address(this)] = _balances[address(this)].add(liquidityFeeAmount);\r\n\r\n    // is the token balance of this contract address over the min number of\r\n    // tokens that we need to initiate a swap + liquidity lock?\r\n    // also, don't get caught in a circular liquidity event.\r\n    // also, don't swap & liquify if sender is uniswap pair.\r\n    uint256 contractTokenBalance = _balances[address(this)];\r\n    \r\n    if(contractTokenBalance >= _maxTxAmount)\r\n    {\r\n      contractTokenBalance = _maxTxAmount;\r\n    }\r\n    \r\n    bool overMinTokenBalance = contractTokenBalance >= _minTokensToAddToLiquidity;\r\n    if (\r\n        overMinTokenBalance &&\r\n        !inSwapAndLiquify &&\r\n        sender != uniswapV2Pair &&\r\n        swapAndLiquifyEnabled\r\n    ) {\r\n        contractTokenBalance = _minTokensToAddToLiquidity;\r\n        //add liquidity\r\n        swapAndLiquify(contractTokenBalance);\r\n    }\r\n\r\n    _balances[sender] = _balances[sender].sub(amount);\r\n    _balances[recipient] = _balances[recipient].add(amount);\r\n    emit Transfer(sender, recipient, amount);\r\n  }\r\n  \r\n  function checkTxValid(address sender, address recipient, uint256 amount) internal view {\r\n    require(sender != address(0), \"BEP20: transfer from the zero address\");\r\n    require(recipient != address(0), \"BEP20: transfer to the zero address\");\r\n    require(amount > 0, \"Transfer amount must be greater than zero\");\r\n    require(_balances[sender] > amount, \"Transfer amount exceeds balance\");\r\n    require(_balances[recipient].add(amount) <= _maxHoldAmount, \"Recipient balance exceeds holding limit\");\r\n    if (sender != owner() && recipient != owner())\r\n      require(amount <= _maxTxAmount, \"Transfer amount exceeds the maxTxAmount.\");\r\n  }\r\n  \r\n  function swapAndLiquify(uint256 contractTokenBalance) private lockTheSwap {\r\n    // split the contract balance into halves\r\n    uint256 half = contractTokenBalance.div(2);\r\n    uint256 otherHalf = contractTokenBalance.sub(half);\r\n\r\n    // capture the contract's current ETH balance.\r\n    // this is so that we can capture exactly the amount of ETH that the\r\n    // swap creates, and not make the liquidity event include any ETH that\r\n    // has been manually sent to the contract\r\n    uint256 initialBalance = address(this).balance;\r\n\r\n    // swap tokens for ETH\r\n    swapTokensForEth(half); // <- this breaks the ETH -> HATE swap when swap+liquify is triggered\r\n\r\n    // how much ETH did we just swap into?\r\n    uint256 newBalance = address(this).balance.sub(initialBalance);\r\n\r\n    // add liquidity to uniswap\r\n    addLiquidity(otherHalf, newBalance);\r\n    \r\n    emit SwapAndLiquify(half, newBalance, otherHalf);\r\n  }\r\n\r\n  function swapTokensForEth(uint256 tokenAmount) private {\r\n    // generate the uniswap pair path of token -> weth\r\n    address[] memory path = new address[](2);\r\n    path[0] = address(this);\r\n    path[1] = uniswapV2Router.WETH();\r\n\r\n    _approve(address(this), address(uniswapV2Router), tokenAmount);\r\n\r\n    // make the swap\r\n    uniswapV2Router.swapExactTokensForETHSupportingFeeOnTransferTokens(\r\n      tokenAmount,\r\n      0, // accept any amount of ETH\r\n      path,\r\n      address(this),\r\n      block.timestamp\r\n    );\r\n  }\r\n\r\n  function addLiquidity(uint256 tokenAmount, uint256 ethAmount) private {\r\n    // approve token transfer to cover all possible scenarios\r\n    _approve(address(this), address(uniswapV2Router), tokenAmount);\r\n\r\n    // add the liquidity\r\n    uniswapV2Router.addLiquidityETH{value: ethAmount}(\r\n      address(this),\r\n      tokenAmount,\r\n      0, // slippage is unavoidable\r\n      0, // slippage is unavoidable\r\n      owner(),\r\n      block.timestamp\r\n    );\r\n  }\r\n\r\n}",
  "sourcePath": "E:/work/blockchain/hjaelp/work/hjaelpcoin-contracts/contracts/HjaelpCoin.sol",
  "compiler": {
    "name": "solc",
    "version": "0.8.0+commit.c7dfd78e.Emscripten.clang"
  },
  "schemaVersion": "3.3.4",
  "updatedAt": "2021-05-10T18:06:50.607Z",
  "devdoc": {
    "kind": "dev",
    "methods": {
      "allowance(address,address)": {
        "details": "See {BEP20-allowance}."
      },
      "approve(address,uint256)": {
        "details": "See {BEP20-approve}. Requirements: - `spender` cannot be the zero address."
      },
      "balanceOf(address)": {
        "details": "See {BEP20-balanceOf}."
      },
      "decimals()": {
        "details": "Returns the token decimals."
      },
      "decreaseAllowance(address,uint256)": {
        "details": "Atomically decreases the allowance granted to `spender` by the caller. This is an alternative to {approve} that can be used as a mitigation for problems described in {BEP20-approve}. Emits an {Approval} event indicating the updated allowance. Requirements: - `spender` cannot be the zero address. - `spender` must have allowance for the caller of at least `subtractedValue`."
      },
      "getOwner()": {
        "details": "Returns the bep token owner."
      },
      "increaseAllowance(address,uint256)": {
        "details": "Atomically increases the allowance granted to `spender` by the caller. This is an alternative to {approve} that can be used as a mitigation for problems described in {BEP20-approve}. Emits an {Approval} event indicating the updated allowance. Requirements: - `spender` cannot be the zero address."
      },
      "maxSupply()": {
        "details": "Maximum Supply of token."
      },
      "mint(uint256)": {
        "details": "Creates `amount` tokens and assigns them to `msg.sender`, increasing the total supply. Requirements - `msg.sender` must be the token owner"
      },
      "name()": {
        "details": "Returns the token name."
      },
      "owner()": {
        "details": "Returns the address of the current owner."
      },
      "renounceOwnership()": {
        "details": "Leaves the contract without owner. It will not be possible to call `onlyOwner` functions anymore. Can only be called by the current owner. NOTE: Renouncing ownership will leave the contract without an owner, thereby removing any functionality that is only available to the owner."
      },
      "symbol()": {
        "details": "Returns the token symbol."
      },
      "totalSupply()": {
        "details": "See {BEP20-totalSupply}."
      },
      "transfer(address,uint256)": {
        "details": "See {BEP20-transfer}. Requirements: - `recipient` cannot be the zero address. - the caller must have a balance of at least `amount`."
      },
      "transferFrom(address,address,uint256)": {
        "details": "See {BEP20-transferFrom}. Emits an {Approval} event indicating the updated allowance. This is not required by the EIP. See the note at the beginning of {BEP20}; Requirements: - `sender` and `recipient` cannot be the zero address. - `sender` must have a balance of at least `amount`. - the caller must have allowance for `sender`'s tokens of at least `amount`."
      },
      "transferOwnership(address)": {
        "details": "Transfers ownership of the contract to a new account (`newOwner`). Can only be called by the current owner."
      }
    },
    "version": 1
  },
  "userdoc": {
    "kind": "user",
    "methods": {},
    "version": 1
  }
}